
display.elf:     file format elf32-avr

Sections:
Idx Name          Size      VMA       LMA       File off  Algn
  0 .text         00000fa6  00000000  00000000  00000094  2**1
                  CONTENTS, ALLOC, LOAD, READONLY, CODE
  1 .data         0000003e  00800060  00000fa6  0000103a  2**0
                  CONTENTS, ALLOC, LOAD, DATA
  2 .bss          0000001f  0080009e  0080009e  00001078  2**0
                  ALLOC
  3 .stab         00001e18  00000000  00000000  00001078  2**2
                  CONTENTS, READONLY, DEBUGGING
  4 .stabstr      000006f5  00000000  00000000  00002e90  2**0
                  CONTENTS, READONLY, DEBUGGING
  5 .debug_aranges 00000020  00000000  00000000  00003585  2**0
                  CONTENTS, READONLY, DEBUGGING
  6 .debug_pubnames 00000313  00000000  00000000  000035a5  2**0
                  CONTENTS, READONLY, DEBUGGING
  7 .debug_info   0000094d  00000000  00000000  000038b8  2**0
                  CONTENTS, READONLY, DEBUGGING
  8 .debug_abbrev 00000275  00000000  00000000  00004205  2**0
                  CONTENTS, READONLY, DEBUGGING
  9 .debug_line   00000c07  00000000  00000000  0000447a  2**0
                  CONTENTS, READONLY, DEBUGGING
 10 .debug_frame  00000290  00000000  00000000  00005084  2**2
                  CONTENTS, READONLY, DEBUGGING
 11 .debug_str    0000035f  00000000  00000000  00005314  2**0
                  CONTENTS, READONLY, DEBUGGING
 12 .debug_loc    000006e4  00000000  00000000  00005673  2**0
                  CONTENTS, READONLY, DEBUGGING
 13 .debug_pubtypes 00000038  00000000  00000000  00005d57  2**0
                  CONTENTS, READONLY, DEBUGGING

Disassembly of section .text:

00000000 <__vectors>:
   0:	0c 94 2a 00 	jmp	0x54	; 0x54 <__ctors_end>
   4:	0c 94 47 00 	jmp	0x8e	; 0x8e <__bad_interrupt>
   8:	0c 94 63 02 	jmp	0x4c6	; 0x4c6 <__vector_2>
   c:	0c 94 47 00 	jmp	0x8e	; 0x8e <__bad_interrupt>
  10:	0c 94 47 00 	jmp	0x8e	; 0x8e <__bad_interrupt>
  14:	0c 94 47 00 	jmp	0x8e	; 0x8e <__bad_interrupt>
  18:	0c 94 47 00 	jmp	0x8e	; 0x8e <__bad_interrupt>
  1c:	0c 94 47 00 	jmp	0x8e	; 0x8e <__bad_interrupt>
  20:	0c 94 47 00 	jmp	0x8e	; 0x8e <__bad_interrupt>
  24:	0c 94 47 00 	jmp	0x8e	; 0x8e <__bad_interrupt>
  28:	0c 94 47 00 	jmp	0x8e	; 0x8e <__bad_interrupt>
  2c:	0c 94 94 05 	jmp	0xb28	; 0xb28 <__vector_11>
  30:	0c 94 47 00 	jmp	0x8e	; 0x8e <__bad_interrupt>
  34:	0c 94 47 00 	jmp	0x8e	; 0x8e <__bad_interrupt>
  38:	0c 94 47 00 	jmp	0x8e	; 0x8e <__bad_interrupt>
  3c:	0c 94 47 00 	jmp	0x8e	; 0x8e <__bad_interrupt>
  40:	0c 94 47 00 	jmp	0x8e	; 0x8e <__bad_interrupt>
  44:	0c 94 47 00 	jmp	0x8e	; 0x8e <__bad_interrupt>
  48:	0c 94 47 00 	jmp	0x8e	; 0x8e <__bad_interrupt>
  4c:	0c 94 47 00 	jmp	0x8e	; 0x8e <__bad_interrupt>
  50:	0c 94 47 00 	jmp	0x8e	; 0x8e <__bad_interrupt>

00000054 <__ctors_end>:
  54:	11 24       	eor	r1, r1
  56:	1f be       	out	0x3f, r1	; 63
  58:	cf e5       	ldi	r28, 0x5F	; 95
  5a:	d4 e0       	ldi	r29, 0x04	; 4
  5c:	de bf       	out	0x3e, r29	; 62
  5e:	cd bf       	out	0x3d, r28	; 61

00000060 <__do_copy_data>:
  60:	10 e0       	ldi	r17, 0x00	; 0
  62:	a0 e6       	ldi	r26, 0x60	; 96
  64:	b0 e0       	ldi	r27, 0x00	; 0
  66:	e6 ea       	ldi	r30, 0xA6	; 166
  68:	ff e0       	ldi	r31, 0x0F	; 15
  6a:	02 c0       	rjmp	.+4      	; 0x70 <__do_copy_data+0x10>
  6c:	05 90       	lpm	r0, Z+
  6e:	0d 92       	st	X+, r0
  70:	ae 39       	cpi	r26, 0x9E	; 158
  72:	b1 07       	cpc	r27, r17
  74:	d9 f7       	brne	.-10     	; 0x6c <__do_copy_data+0xc>

00000076 <__do_clear_bss>:
  76:	10 e0       	ldi	r17, 0x00	; 0
  78:	ae e9       	ldi	r26, 0x9E	; 158
  7a:	b0 e0       	ldi	r27, 0x00	; 0
  7c:	01 c0       	rjmp	.+2      	; 0x80 <.do_clear_bss_start>

0000007e <.do_clear_bss_loop>:
  7e:	1d 92       	st	X+, r1

00000080 <.do_clear_bss_start>:
  80:	ad 3b       	cpi	r26, 0xBD	; 189
  82:	b1 07       	cpc	r27, r17
  84:	e1 f7       	brne	.-8      	; 0x7e <.do_clear_bss_loop>
  86:	0e 94 49 05 	call	0xa92	; 0xa92 <main>
  8a:	0c 94 d1 07 	jmp	0xfa2	; 0xfa2 <_exit>

0000008e <__bad_interrupt>:
  8e:	0c 94 00 00 	jmp	0	; 0x0 <__vectors>

00000092 <usart_init>:
#define Baud_rate_9600	103
void usart_init(void)
{	
	
	//UBRRH=0x00;UBRRL=51;// for 8MHZ 
	UBRRH=0;
  92:	10 bc       	out	0x20, r1	; 32
	UBRRL=Baud_rate_11520;
  94:	88 e0       	ldi	r24, 0x08	; 8
  96:	89 b9       	out	0x09, r24	; 9
	UCSRA=0x00;//(1)
  98:	1b b8       	out	0x0b, r1	; 11
	UCSRC|=(1<<URSEL)|(1<<UCSZ1)|(1<<UCSZ0);//(3)
  9a:	80 b5       	in	r24, 0x20	; 32
  9c:	86 68       	ori	r24, 0x86	; 134
  9e:	80 bd       	out	0x20, r24	; 32
	UCSRB|=(1<<TXEN)|(1<<RXEN);//enable USART transmitter
  a0:	8a b1       	in	r24, 0x0a	; 10
  a2:	88 61       	ori	r24, 0x18	; 24
  a4:	8a b9       	out	0x0a, r24	; 10
	sei();//enable global interrupt	
  a6:	78 94       	sei
}
  a8:	08 95       	ret

000000aa <USART_tx_off>:
//----- tat tinh nang truyen du lieu ----------
void USART_tx_off(void)
{
	UCSRB&=(~(1<<TXEN));
  aa:	53 98       	cbi	0x0a, 3	; 10
}
  ac:	08 95       	ret

000000ae <USART_tx_on>:

//----- bat tinh nang truyen du lieu ----------
void USART_tx_on(void)
{
	UCSRB|=(1<<TXEN);
  ae:	53 9a       	sbi	0x0a, 3	; 10
}
  b0:	08 95       	ret

000000b2 <usart_transmit>:
/***********************************************
Write a character to transmit
***********************************************/
void usart_transmit(unsigned char data)
{
	loop_until_bit_is_set(UCSRA,UDRE);
  b2:	5d 9b       	sbis	0x0b, 5	; 11
  b4:	fe cf       	rjmp	.-4      	; 0xb2 <usart_transmit>
	UDR= data;
  b6:	8c b9       	out	0x0c, r24	; 12
}
  b8:	08 95       	ret

000000ba <usart_send_string>:

/************************************************************************/
/* usart send string                                                    */
/************************************************************************/
void usart_send_string (unsigned char const *string)// lenh in 1 xau ki tu *string
{
  ba:	cf 93       	push	r28
  bc:	df 93       	push	r29
  be:	ec 01       	movw	r28, r24
  while (*string)
  c0:	88 81       	ld	r24, Y
  c2:	88 23       	and	r24, r24
  c4:	31 f0       	breq	.+12     	; 0xd2 <usart_send_string+0x18>
}

/************************************************************************/
/* usart send string                                                    */
/************************************************************************/
void usart_send_string (unsigned char const *string)// lenh in 1 xau ki tu *string
  c6:	21 96       	adiw	r28, 0x01	; 1
{
  while (*string)
  {
    usart_transmit(*string++); //in ra gia tri 1 ki tu cua xau, dc tro boi con tro *string
  c8:	0e 94 59 00 	call	0xb2	; 0xb2 <usart_transmit>
/************************************************************************/
/* usart send string                                                    */
/************************************************************************/
void usart_send_string (unsigned char const *string)// lenh in 1 xau ki tu *string
{
  while (*string)
  cc:	89 91       	ld	r24, Y+
  ce:	88 23       	and	r24, r24
  d0:	d9 f7       	brne	.-10     	; 0xc8 <usart_send_string+0xe>
  {
    usart_transmit(*string++); //in ra gia tri 1 ki tu cua xau, dc tro boi con tro *string
  }
}
  d2:	df 91       	pop	r29
  d4:	cf 91       	pop	r28
  d6:	08 95       	ret

000000d8 <usart_print_nb>:
/*******************************************************************************
* In so nguyen co 5 chu so                                                *
*******************************************************************************/
void usart_print_nb(unsigned long n)//in so co 5 chu so ko co dau phay
{
  d8:	9f 92       	push	r9
  da:	af 92       	push	r10
  dc:	bf 92       	push	r11
  de:	cf 92       	push	r12
  e0:	df 92       	push	r13
  e2:	ef 92       	push	r14
  e4:	ff 92       	push	r15
  e6:	0f 93       	push	r16
  e8:	1f 93       	push	r17
	unsigned long a,b;
	if(n<10){usart_transmit(n+48);}//so co 1 chu so
  ea:	6a 30       	cpi	r22, 0x0A	; 10
  ec:	71 05       	cpc	r23, r1
  ee:	81 05       	cpc	r24, r1
  f0:	91 05       	cpc	r25, r1
  f2:	28 f4       	brcc	.+10     	; 0xfe <usart_print_nb+0x26>
  f4:	86 2f       	mov	r24, r22
  f6:	80 5d       	subi	r24, 0xD0	; 208
  f8:	0e 94 59 00 	call	0xb2	; 0xb2 <usart_transmit>
  fc:	c4 c0       	rjmp	.+392    	; 0x286 <usart_print_nb+0x1ae>
	  else 
	if(n<100)//so co 2 chu so
  fe:	64 36       	cpi	r22, 0x64	; 100
 100:	71 05       	cpc	r23, r1
 102:	81 05       	cpc	r24, r1
 104:	91 05       	cpc	r25, r1
 106:	80 f4       	brcc	.+32     	; 0x128 <usart_print_nb+0x50>
	{
		usart_transmit(n/10+48);//in chu so hang chuc
 108:	2a e0       	ldi	r18, 0x0A	; 10
 10a:	30 e0       	ldi	r19, 0x00	; 0
 10c:	40 e0       	ldi	r20, 0x00	; 0
 10e:	50 e0       	ldi	r21, 0x00	; 0
 110:	0e 94 af 07 	call	0xf5e	; 0xf5e <__udivmodsi4>
 114:	16 2f       	mov	r17, r22
 116:	82 2f       	mov	r24, r18
 118:	80 5d       	subi	r24, 0xD0	; 208
 11a:	0e 94 59 00 	call	0xb2	; 0xb2 <usart_transmit>
		usart_transmit(n%10+48);//in chu so hang don vi
 11e:	81 2f       	mov	r24, r17
 120:	80 5d       	subi	r24, 0xD0	; 208
 122:	0e 94 59 00 	call	0xb2	; 0xb2 <usart_transmit>
 126:	af c0       	rjmp	.+350    	; 0x286 <usart_print_nb+0x1ae>
	}
	
	  else
	if(n<1000)//so co 3 chu so
 128:	68 3e       	cpi	r22, 0xE8	; 232
 12a:	23 e0       	ldi	r18, 0x03	; 3
 12c:	72 07       	cpc	r23, r18
 12e:	20 e0       	ldi	r18, 0x00	; 0
 130:	82 07       	cpc	r24, r18
 132:	20 e0       	ldi	r18, 0x00	; 0
 134:	92 07       	cpc	r25, r18
 136:	18 f5       	brcc	.+70     	; 0x17e <usart_print_nb+0xa6>
	{
		a=n/10;//a chua chu so hang tram va hang chuc
 138:	0f 2e       	mov	r0, r31
 13a:	fa e0       	ldi	r31, 0x0A	; 10
 13c:	ef 2e       	mov	r14, r31
 13e:	f0 e0       	ldi	r31, 0x00	; 0
 140:	ff 2e       	mov	r15, r31
 142:	f0 e0       	ldi	r31, 0x00	; 0
 144:	0f 2f       	mov	r16, r31
 146:	f0 e0       	ldi	r31, 0x00	; 0
 148:	1f 2f       	mov	r17, r31
 14a:	f0 2d       	mov	r31, r0
 14c:	a8 01       	movw	r20, r16
 14e:	97 01       	movw	r18, r14
 150:	0e 94 af 07 	call	0xf5e	; 0xf5e <__udivmodsi4>
 154:	a6 2e       	mov	r10, r22
		usart_transmit(a/10+48);//in chu so hang tram
 156:	ca 01       	movw	r24, r20
 158:	b9 01       	movw	r22, r18
 15a:	a8 01       	movw	r20, r16
 15c:	97 01       	movw	r18, r14
 15e:	0e 94 af 07 	call	0xf5e	; 0xf5e <__udivmodsi4>
 162:	16 2f       	mov	r17, r22
 164:	82 2f       	mov	r24, r18
 166:	80 5d       	subi	r24, 0xD0	; 208
 168:	0e 94 59 00 	call	0xb2	; 0xb2 <usart_transmit>
		usart_transmit(a%10+48);//in chu so hang chuc
 16c:	81 2f       	mov	r24, r17
 16e:	80 5d       	subi	r24, 0xD0	; 208
 170:	0e 94 59 00 	call	0xb2	; 0xb2 <usart_transmit>
		usart_transmit(n%10+48);//in chu so hang don vi
 174:	8a 2d       	mov	r24, r10
 176:	80 5d       	subi	r24, 0xD0	; 208
 178:	0e 94 59 00 	call	0xb2	; 0xb2 <usart_transmit>
 17c:	84 c0       	rjmp	.+264    	; 0x286 <usart_print_nb+0x1ae>
		
	}
	 else if(n<10000)//so co 4 chu so 
 17e:	60 31       	cpi	r22, 0x10	; 16
 180:	27 e2       	ldi	r18, 0x27	; 39
 182:	72 07       	cpc	r23, r18
 184:	20 e0       	ldi	r18, 0x00	; 0
 186:	82 07       	cpc	r24, r18
 188:	20 e0       	ldi	r18, 0x00	; 0
 18a:	92 07       	cpc	r25, r18
 18c:	88 f5       	brcc	.+98     	; 0x1f0 <usart_print_nb+0x118>
	{
		a=n/100;//chua hang nghin va hang tram
 18e:	24 e6       	ldi	r18, 0x64	; 100
 190:	30 e0       	ldi	r19, 0x00	; 0
 192:	40 e0       	ldi	r20, 0x00	; 0
 194:	50 e0       	ldi	r21, 0x00	; 0
 196:	0e 94 af 07 	call	0xf5e	; 0xf5e <__udivmodsi4>
 19a:	5b 01       	movw	r10, r22
 19c:	6c 01       	movw	r12, r24
		b=n%100;//chua hang chuc va don vi
		usart_transmit(a/10+48);//in so hang nghin
 19e:	0f 2e       	mov	r0, r31
 1a0:	fa e0       	ldi	r31, 0x0A	; 10
 1a2:	ef 2e       	mov	r14, r31
 1a4:	f0 e0       	ldi	r31, 0x00	; 0
 1a6:	ff 2e       	mov	r15, r31
 1a8:	f0 e0       	ldi	r31, 0x00	; 0
 1aa:	0f 2f       	mov	r16, r31
 1ac:	f0 e0       	ldi	r31, 0x00	; 0
 1ae:	1f 2f       	mov	r17, r31
 1b0:	f0 2d       	mov	r31, r0
 1b2:	ca 01       	movw	r24, r20
 1b4:	b9 01       	movw	r22, r18
 1b6:	a8 01       	movw	r20, r16
 1b8:	97 01       	movw	r18, r14
 1ba:	0e 94 af 07 	call	0xf5e	; 0xf5e <__udivmodsi4>
 1be:	96 2e       	mov	r9, r22
 1c0:	82 2f       	mov	r24, r18
 1c2:	80 5d       	subi	r24, 0xD0	; 208
 1c4:	0e 94 59 00 	call	0xb2	; 0xb2 <usart_transmit>
		usart_transmit(a%10+48);//in so hang tram
 1c8:	89 2d       	mov	r24, r9
 1ca:	80 5d       	subi	r24, 0xD0	; 208
 1cc:	0e 94 59 00 	call	0xb2	; 0xb2 <usart_transmit>
		usart_transmit(b/10+48);//in so hang chuc
 1d0:	c6 01       	movw	r24, r12
 1d2:	b5 01       	movw	r22, r10
 1d4:	a8 01       	movw	r20, r16
 1d6:	97 01       	movw	r18, r14
 1d8:	0e 94 af 07 	call	0xf5e	; 0xf5e <__udivmodsi4>
 1dc:	16 2f       	mov	r17, r22
 1de:	82 2f       	mov	r24, r18
 1e0:	80 5d       	subi	r24, 0xD0	; 208
 1e2:	0e 94 59 00 	call	0xb2	; 0xb2 <usart_transmit>
		usart_transmit(b%10+48);//in so hang don vi
 1e6:	81 2f       	mov	r24, r17
 1e8:	80 5d       	subi	r24, 0xD0	; 208
 1ea:	0e 94 59 00 	call	0xb2	; 0xb2 <usart_transmit>
 1ee:	4b c0       	rjmp	.+150    	; 0x286 <usart_print_nb+0x1ae>
		
	}	
	 else if(n<100000)//so co 5 chu so
 1f0:	60 3a       	cpi	r22, 0xA0	; 160
 1f2:	26 e8       	ldi	r18, 0x86	; 134
 1f4:	72 07       	cpc	r23, r18
 1f6:	21 e0       	ldi	r18, 0x01	; 1
 1f8:	82 07       	cpc	r24, r18
 1fa:	20 e0       	ldi	r18, 0x00	; 0
 1fc:	92 07       	cpc	r25, r18
 1fe:	08 f0       	brcs	.+2      	; 0x202 <usart_print_nb+0x12a>
 200:	42 c0       	rjmp	.+132    	; 0x286 <usart_print_nb+0x1ae>
	 {
		a=n/1000;//chua hang chuc nghin va hang nghin
 202:	28 ee       	ldi	r18, 0xE8	; 232
 204:	33 e0       	ldi	r19, 0x03	; 3
 206:	40 e0       	ldi	r20, 0x00	; 0
 208:	50 e0       	ldi	r21, 0x00	; 0
 20a:	0e 94 af 07 	call	0xf5e	; 0xf5e <__udivmodsi4>
 20e:	5b 01       	movw	r10, r22
 210:	6c 01       	movw	r12, r24
		b=n%1000;//chua hang tram,chuc va don vi
		usart_transmit(a/10+48);//in so hang chuc nghin
 212:	0f 2e       	mov	r0, r31
 214:	fa e0       	ldi	r31, 0x0A	; 10
 216:	ef 2e       	mov	r14, r31
 218:	f0 e0       	ldi	r31, 0x00	; 0
 21a:	ff 2e       	mov	r15, r31
 21c:	f0 e0       	ldi	r31, 0x00	; 0
 21e:	0f 2f       	mov	r16, r31
 220:	f0 e0       	ldi	r31, 0x00	; 0
 222:	1f 2f       	mov	r17, r31
 224:	f0 2d       	mov	r31, r0
 226:	ca 01       	movw	r24, r20
 228:	b9 01       	movw	r22, r18
 22a:	a8 01       	movw	r20, r16
 22c:	97 01       	movw	r18, r14
 22e:	0e 94 af 07 	call	0xf5e	; 0xf5e <__udivmodsi4>
 232:	96 2e       	mov	r9, r22
 234:	82 2f       	mov	r24, r18
 236:	80 5d       	subi	r24, 0xD0	; 208
 238:	0e 94 59 00 	call	0xb2	; 0xb2 <usart_transmit>
		usart_transmit(a%10+48);//in so hang nghin
 23c:	89 2d       	mov	r24, r9
 23e:	80 5d       	subi	r24, 0xD0	; 208
 240:	0e 94 59 00 	call	0xb2	; 0xb2 <usart_transmit>
		usart_transmit(b/100+48);//in so hang tram
 244:	c6 01       	movw	r24, r12
 246:	b5 01       	movw	r22, r10
 248:	24 e6       	ldi	r18, 0x64	; 100
 24a:	30 e0       	ldi	r19, 0x00	; 0
 24c:	40 e0       	ldi	r20, 0x00	; 0
 24e:	50 e0       	ldi	r21, 0x00	; 0
 250:	0e 94 af 07 	call	0xf5e	; 0xf5e <__udivmodsi4>
 254:	82 2f       	mov	r24, r18
 256:	80 5d       	subi	r24, 0xD0	; 208
 258:	0e 94 59 00 	call	0xb2	; 0xb2 <usart_transmit>
		usart_transmit((b/10)%10+48);//in so hang don chuc
 25c:	c6 01       	movw	r24, r12
 25e:	b5 01       	movw	r22, r10
 260:	a8 01       	movw	r20, r16
 262:	97 01       	movw	r18, r14
 264:	0e 94 af 07 	call	0xf5e	; 0xf5e <__udivmodsi4>
 268:	a6 2e       	mov	r10, r22
 26a:	ca 01       	movw	r24, r20
 26c:	b9 01       	movw	r22, r18
 26e:	a8 01       	movw	r20, r16
 270:	97 01       	movw	r18, r14
 272:	0e 94 af 07 	call	0xf5e	; 0xf5e <__udivmodsi4>
 276:	86 2f       	mov	r24, r22
 278:	80 5d       	subi	r24, 0xD0	; 208
 27a:	0e 94 59 00 	call	0xb2	; 0xb2 <usart_transmit>
		usart_transmit(b%10+48);//in so hang don vi
 27e:	8a 2d       	mov	r24, r10
 280:	80 5d       	subi	r24, 0xD0	; 208
 282:	0e 94 59 00 	call	0xb2	; 0xb2 <usart_transmit>
		
	 }		 
		
}
 286:	1f 91       	pop	r17
 288:	0f 91       	pop	r16
 28a:	ff 90       	pop	r15
 28c:	ef 90       	pop	r14
 28e:	df 90       	pop	r13
 290:	cf 90       	pop	r12
 292:	bf 90       	pop	r11
 294:	af 90       	pop	r10
 296:	9f 90       	pop	r9
 298:	08 95       	ret

0000029a <usart_print_rnb>:

/*******************************************************************************
* In so co 3 chu so truoc dau phay, 3 chu so sau dau phay                                                *
*******************************************************************************/
void usart_print_rnb(float r)//in so thap phan co 4 chu so sau dau phay
{
 29a:	af 92       	push	r10
 29c:	bf 92       	push	r11
 29e:	cf 92       	push	r12
 2a0:	df 92       	push	r13
 2a2:	ef 92       	push	r14
 2a4:	ff 92       	push	r15
 2a6:	0f 93       	push	r16
 2a8:	1f 93       	push	r17
 2aa:	5b 01       	movw	r10, r22
 2ac:	6c 01       	movw	r12, r24
	unsigned long p_nguyen;
	unsigned int t_phan;
	
	if(r<0)// them dau tru neu la so am
 2ae:	20 e0       	ldi	r18, 0x00	; 0
 2b0:	30 e0       	ldi	r19, 0x00	; 0
 2b2:	a9 01       	movw	r20, r18
 2b4:	0e 94 56 06 	call	0xcac	; 0xcac <__cmpsf2>
 2b8:	88 23       	and	r24, r24
 2ba:	3c f4       	brge	.+14     	; 0x2ca <usart_print_rnb+0x30>
	{
	usart_transmit(45);
 2bc:	8d e2       	ldi	r24, 0x2D	; 45
 2be:	0e 94 59 00 	call	0xb2	; 0xb2 <usart_transmit>
	r=-r;
 2c2:	d7 fa       	bst	r13, 7
 2c4:	d0 94       	com	r13
 2c6:	d7 f8       	bld	r13, 7
 2c8:	d0 94       	com	r13
	}
	p_nguyen=r/1;
 2ca:	c6 01       	movw	r24, r12
 2cc:	b5 01       	movw	r22, r10
 2ce:	0e 94 5a 06 	call	0xcb4	; 0xcb4 <__fixunssfsi>
 2d2:	e6 2e       	mov	r14, r22
 2d4:	f7 2e       	mov	r15, r23
 2d6:	08 2f       	mov	r16, r24
 2d8:	19 2f       	mov	r17, r25
	t_phan=(r-p_nguyen)*1000/1;//lay ba chu so sau dau phay, sau do in ra ca 3 ki tu so nay
 2da:	0e 94 86 06 	call	0xd0c	; 0xd0c <__floatunsisf>
 2de:	9b 01       	movw	r18, r22
 2e0:	ac 01       	movw	r20, r24
 2e2:	c6 01       	movw	r24, r12
 2e4:	b5 01       	movw	r22, r10
 2e6:	0e 94 f1 05 	call	0xbe2	; 0xbe2 <__subsf3>
 2ea:	20 e0       	ldi	r18, 0x00	; 0
 2ec:	30 e0       	ldi	r19, 0x00	; 0
 2ee:	4a e7       	ldi	r20, 0x7A	; 122
 2f0:	54 e4       	ldi	r21, 0x44	; 68
 2f2:	0e 94 38 07 	call	0xe70	; 0xe70 <__mulsf3>
 2f6:	0e 94 5a 06 	call	0xcb4	; 0xcb4 <__fixunssfsi>
 2fa:	5b 01       	movw	r10, r22
	usart_print_nb(p_nguyen);
 2fc:	6e 2d       	mov	r22, r14
 2fe:	7f 2d       	mov	r23, r15
 300:	80 2f       	mov	r24, r16
 302:	91 2f       	mov	r25, r17
 304:	0e 94 6c 00 	call	0xd8	; 0xd8 <usart_print_nb>
	usart_transmit(46);
 308:	8e e2       	ldi	r24, 0x2E	; 46
 30a:	0e 94 59 00 	call	0xb2	; 0xb2 <usart_transmit>
	usart_transmit((t_phan/100)+48);
 30e:	c5 01       	movw	r24, r10
 310:	64 e6       	ldi	r22, 0x64	; 100
 312:	70 e0       	ldi	r23, 0x00	; 0
 314:	0e 94 9b 07 	call	0xf36	; 0xf36 <__udivmodhi4>
 318:	7c 01       	movw	r14, r24
 31a:	86 2f       	mov	r24, r22
 31c:	80 5d       	subi	r24, 0xD0	; 208
 31e:	0e 94 59 00 	call	0xb2	; 0xb2 <usart_transmit>
	usart_transmit((t_phan%100)/10+48);
 322:	0a e0       	ldi	r16, 0x0A	; 10
 324:	10 e0       	ldi	r17, 0x00	; 0
 326:	c7 01       	movw	r24, r14
 328:	b8 01       	movw	r22, r16
 32a:	0e 94 9b 07 	call	0xf36	; 0xf36 <__udivmodhi4>
 32e:	86 2f       	mov	r24, r22
 330:	80 5d       	subi	r24, 0xD0	; 208
 332:	0e 94 59 00 	call	0xb2	; 0xb2 <usart_transmit>
	usart_transmit(t_phan%10+48);
 336:	c5 01       	movw	r24, r10
 338:	b8 01       	movw	r22, r16
 33a:	0e 94 9b 07 	call	0xf36	; 0xf36 <__udivmodhi4>
 33e:	80 5d       	subi	r24, 0xD0	; 208
 340:	0e 94 59 00 	call	0xb2	; 0xb2 <usart_transmit>
}
 344:	1f 91       	pop	r17
 346:	0f 91       	pop	r16
 348:	ff 90       	pop	r15
 34a:	ef 90       	pop	r14
 34c:	df 90       	pop	r13
 34e:	cf 90       	pop	r12
 350:	bf 90       	pop	r11
 352:	af 90       	pop	r10
 354:	08 95       	ret

00000356 <usart_xuongdong>:
/************************************************************************/
/* Xuong dong                                                           */
/************************************************************************/
void usart_xuongdong(void)
{
	usart_transmit(13);
 356:	8d e0       	ldi	r24, 0x0D	; 13
 358:	0e 94 59 00 	call	0xb2	; 0xb2 <usart_transmit>
}
 35c:	08 95       	ret

0000035e <usart_clr>:

//------------------------------------------------------------------------
void usart_clr(unsigned char y)
{
 35e:	0f 93       	push	r16
 360:	1f 93       	push	r17
 362:	08 2f       	mov	r16, r24
	unsigned char i;
	for(i=0;i<y;i++)
 364:	88 23       	and	r24, r24
 366:	39 f0       	breq	.+14     	; 0x376 <usart_clr+0x18>
 368:	10 e0       	ldi	r17, 0x00	; 0
	{
		usart_transmit(0x08);
 36a:	88 e0       	ldi	r24, 0x08	; 8
 36c:	0e 94 59 00 	call	0xb2	; 0xb2 <usart_transmit>

//------------------------------------------------------------------------
void usart_clr(unsigned char y)
{
	unsigned char i;
	for(i=0;i<y;i++)
 370:	1f 5f       	subi	r17, 0xFF	; 255
 372:	10 17       	cp	r17, r16
 374:	d0 f3       	brcs	.-12     	; 0x36a <usart_clr+0xc>
	{
		usart_transmit(0x08);
	}
}
 376:	1f 91       	pop	r17
 378:	0f 91       	pop	r16
 37a:	08 95       	ret

0000037c <usart_print_hexnb>:

//-------- all convert to hexa then print  -------------
void usart_print_hexnb(int x_var)
{
 37c:	ef 92       	push	r14
 37e:	ff 92       	push	r15
 380:	0f 93       	push	r16
 382:	1f 93       	push	r17
 384:	df 93       	push	r29
 386:	cf 93       	push	r28
 388:	00 d0       	rcall	.+0      	; 0x38a <usart_print_hexnb+0xe>
 38a:	00 d0       	rcall	.+0      	; 0x38c <usart_print_hexnb+0x10>
 38c:	cd b7       	in	r28, 0x3d	; 61
 38e:	de b7       	in	r29, 0x3e	; 62
	unsigned char x[4],i;	
	//x[4]=(x_var&0xf0000)>>16;
	x[3]=(x_var&0xf000)>>12;
 390:	29 2f       	mov	r18, r25
 392:	22 95       	swap	r18
 394:	2f 70       	andi	r18, 0x0F	; 15
 396:	2c 83       	std	Y+4, r18	; 0x04
	x[2]=(x_var&0xf00)>>8;
 398:	9c 01       	movw	r18, r24
 39a:	20 70       	andi	r18, 0x00	; 0
 39c:	3f 70       	andi	r19, 0x0F	; 15
 39e:	3b 83       	std	Y+3, r19	; 0x03
	x[1]=(x_var&0xf0)>>4;
 3a0:	9c 01       	movw	r18, r24
 3a2:	20 7f       	andi	r18, 0xF0	; 240
 3a4:	30 70       	andi	r19, 0x00	; 0
 3a6:	35 95       	asr	r19
 3a8:	27 95       	ror	r18
 3aa:	35 95       	asr	r19
 3ac:	27 95       	ror	r18
 3ae:	35 95       	asr	r19
 3b0:	27 95       	ror	r18
 3b2:	35 95       	asr	r19
 3b4:	27 95       	ror	r18
 3b6:	2a 83       	std	Y+2, r18	; 0x02
	x[0]=(x_var&0x0f);
 3b8:	8f 70       	andi	r24, 0x0F	; 15
 3ba:	89 83       	std	Y+1, r24	; 0x01
 3bc:	8e 01       	movw	r16, r28
 3be:	0b 5f       	subi	r16, 0xFB	; 251
 3c0:	1f 4f       	sbci	r17, 0xFF	; 255
		usart_transmit(0x08);
	}
}

//-------- all convert to hexa then print  -------------
void usart_print_hexnb(int x_var)
 3c2:	7e 01       	movw	r14, r28
 3c4:	08 94       	sec
 3c6:	e1 1c       	adc	r14, r1
 3c8:	f1 1c       	adc	r15, r1
	x[2]=(x_var&0xf00)>>8;
	x[1]=(x_var&0xf0)>>4;
	x[0]=(x_var&0x0f);
	for(i=4;i>0;i--)
	{
		if(x[i-1]>10 || x[i-1]==10){usart_transmit(x[i-1]+55);}
 3ca:	f8 01       	movw	r30, r16
 3cc:	82 91       	ld	r24, -Z
 3ce:	8f 01       	movw	r16, r30
 3d0:	8a 30       	cpi	r24, 0x0A	; 10
 3d2:	20 f0       	brcs	.+8      	; 0x3dc <usart_print_hexnb+0x60>
 3d4:	89 5c       	subi	r24, 0xC9	; 201
 3d6:	0e 94 59 00 	call	0xb2	; 0xb2 <usart_transmit>
 3da:	03 c0       	rjmp	.+6      	; 0x3e2 <usart_print_hexnb+0x66>
			else{usart_transmit(x[i-1]+48);}
 3dc:	80 5d       	subi	r24, 0xD0	; 208
 3de:	0e 94 59 00 	call	0xb2	; 0xb2 <usart_transmit>
	//x[4]=(x_var&0xf0000)>>16;
	x[3]=(x_var&0xf000)>>12;
	x[2]=(x_var&0xf00)>>8;
	x[1]=(x_var&0xf0)>>4;
	x[0]=(x_var&0x0f);
	for(i=4;i>0;i--)
 3e2:	0e 15       	cp	r16, r14
 3e4:	1f 05       	cpc	r17, r15
 3e6:	89 f7       	brne	.-30     	; 0x3ca <usart_print_hexnb+0x4e>
		if(x[i-1]>10 || x[i-1]==10){usart_transmit(x[i-1]+55);}
			else{usart_transmit(x[i-1]+48);}
		//if(i==3){usart_transmit(32);}
	}	
	
}
 3e8:	0f 90       	pop	r0
 3ea:	0f 90       	pop	r0
 3ec:	0f 90       	pop	r0
 3ee:	0f 90       	pop	r0
 3f0:	cf 91       	pop	r28
 3f2:	df 91       	pop	r29
 3f4:	1f 91       	pop	r17
 3f6:	0f 91       	pop	r16
 3f8:	ff 90       	pop	r15
 3fa:	ef 90       	pop	r14
 3fc:	08 95       	ret

000003fe <usart_print_int>:

/************************************************************************/
/* usart print int number to decimal type                               */
/************************************************************************/
void usart_print_int(int a)
{
 3fe:	ef 92       	push	r14
 400:	ff 92       	push	r15
 402:	0f 93       	push	r16
 404:	1f 93       	push	r17
 406:	cf 93       	push	r28
 408:	df 93       	push	r29
 40a:	ec 01       	movw	r28, r24
	if((a&0x8000)==0)//so duong
 40c:	99 23       	and	r25, r25
 40e:	44 f0       	brlt	.+16     	; 0x420 <usart_print_int+0x22>
		{
			usart_print_nb(a);
 410:	be 01       	movw	r22, r28
 412:	88 27       	eor	r24, r24
 414:	77 fd       	sbrc	r23, 7
 416:	80 95       	com	r24
 418:	98 2f       	mov	r25, r24
 41a:	0e 94 6c 00 	call	0xd8	; 0xd8 <usart_print_nb>
 41e:	14 c0       	rjmp	.+40     	; 0x448 <usart_print_int+0x4a>
		}		
	else//so am
		{
			usart_transmit(45);
 420:	8d e2       	ldi	r24, 0x2D	; 45
 422:	0e 94 59 00 	call	0xb2	; 0xb2 <usart_transmit>
			usart_print_nb(65536-(unsigned int)a);
 426:	ce 01       	movw	r24, r28
 428:	a0 e0       	ldi	r26, 0x00	; 0
 42a:	b0 e0       	ldi	r27, 0x00	; 0
 42c:	20 e0       	ldi	r18, 0x00	; 0
 42e:	30 e0       	ldi	r19, 0x00	; 0
 430:	41 e0       	ldi	r20, 0x01	; 1
 432:	50 e0       	ldi	r21, 0x00	; 0
 434:	79 01       	movw	r14, r18
 436:	8a 01       	movw	r16, r20
 438:	e8 1a       	sub	r14, r24
 43a:	f9 0a       	sbc	r15, r25
 43c:	0a 0b       	sbc	r16, r26
 43e:	1b 0b       	sbc	r17, r27
 440:	c8 01       	movw	r24, r16
 442:	b7 01       	movw	r22, r14
 444:	0e 94 6c 00 	call	0xd8	; 0xd8 <usart_print_nb>
		}		
}
 448:	df 91       	pop	r29
 44a:	cf 91       	pop	r28
 44c:	1f 91       	pop	r17
 44e:	0f 91       	pop	r16
 450:	ff 90       	pop	r15
 452:	ef 90       	pop	r14
 454:	08 95       	ret

00000456 <led_1>:
#define off 1

void led_1(unsigned char i)
{
	i%=2;
	DDRD|=1<<PIND6;
 456:	8e 9a       	sbi	0x11, 6	; 17
	if(i==on)PORTD&=~(1<<PIND6);
 458:	98 2f       	mov	r25, r24
 45a:	91 70       	andi	r25, 0x01	; 1
 45c:	80 fd       	sbrc	r24, 0
 45e:	02 c0       	rjmp	.+4      	; 0x464 <__stack+0x5>
 460:	96 98       	cbi	0x12, 6	; 18
 462:	08 95       	ret
	if(i==off)PORTD|=1<<PIND6;
 464:	91 30       	cpi	r25, 0x01	; 1
 466:	09 f4       	brne	.+2      	; 0x46a <__stack+0xb>
 468:	96 9a       	sbi	0x12, 6	; 18
 46a:	08 95       	ret

0000046c <led_2>:
}

void led_2(unsigned char i)
{
	i%=2;
	DDRD|=1<<PIND7;
 46c:	8f 9a       	sbi	0x11, 7	; 17
	if(i==on)PORTD&=~(1<<PIND7);
 46e:	98 2f       	mov	r25, r24
 470:	91 70       	andi	r25, 0x01	; 1
 472:	80 fd       	sbrc	r24, 0
 474:	02 c0       	rjmp	.+4      	; 0x47a <led_2+0xe>
 476:	97 98       	cbi	0x12, 7	; 18
 478:	08 95       	ret
	if(i==off)PORTD|=1<<PIND7;
 47a:	91 30       	cpi	r25, 0x01	; 1
 47c:	09 f4       	brne	.+2      	; 0x480 <led_2+0x14>
 47e:	97 9a       	sbi	0x12, 7	; 18
 480:	08 95       	ret

00000482 <button_init>:
/* Button init                                                      */
/************************************************************************/
void button_init(void)
{
	//----------------------------------------
	button_PORT|=(1<<bt3)|(1<<bt2)|(1<<bt1);//pull up all the buttons logic
 482:	82 b3       	in	r24, 0x12	; 18
 484:	88 63       	ori	r24, 0x38	; 56
 486:	82 bb       	out	0x12, r24	; 18
	button_DIR&=(~(1<<bt3))&(~(1<<bt2))&(~(1<<bt1));//set all buttons are input
 488:	81 b3       	in	r24, 0x11	; 17
 48a:	87 7c       	andi	r24, 0xC7	; 199
 48c:	81 bb       	out	0x11, r24	; 17
	//----  bt1 is an external interrupt ------
	sei();
 48e:	78 94       	sei
	MCUCR|=(1<<ISC11)|(1<<ISC10);
 490:	85 b7       	in	r24, 0x35	; 53
 492:	8c 60       	ori	r24, 0x0C	; 12
 494:	85 bf       	out	0x35, r24	; 53
	GICR|=1<<INT1;
 496:	8b b7       	in	r24, 0x3b	; 59
 498:	80 68       	ori	r24, 0x80	; 128
 49a:	8b bf       	out	0x3b, r24	; 59
	//-----------------------------------------
}
 49c:	08 95       	ret

0000049e <get_button_stt>:

unsigned char get_button_stt(unsigned char button_pin)
{
	unsigned char button_stt;
	button_stt= (button_PIN&(1<<button_pin))>>button_pin;
 49e:	20 b3       	in	r18, 0x10	; 16
 4a0:	41 e0       	ldi	r20, 0x01	; 1
 4a2:	50 e0       	ldi	r21, 0x00	; 0
 4a4:	08 2e       	mov	r0, r24
 4a6:	02 c0       	rjmp	.+4      	; 0x4ac <get_button_stt+0xe>
 4a8:	44 0f       	add	r20, r20
 4aa:	55 1f       	adc	r21, r21
 4ac:	0a 94       	dec	r0
 4ae:	e2 f7       	brpl	.-8      	; 0x4a8 <get_button_stt+0xa>
 4b0:	30 e0       	ldi	r19, 0x00	; 0
 4b2:	24 23       	and	r18, r20
 4b4:	35 23       	and	r19, r21
 4b6:	a9 01       	movw	r20, r18
 4b8:	02 c0       	rjmp	.+4      	; 0x4be <get_button_stt+0x20>
 4ba:	55 95       	asr	r21
 4bc:	47 95       	ror	r20
 4be:	8a 95       	dec	r24
 4c0:	e2 f7       	brpl	.-8      	; 0x4ba <get_button_stt+0x1c>
 4c2:	ca 01       	movw	r24, r20
	return button_stt;
}
 4c4:	08 95       	ret

000004c6 <__vector_2>:


ISR(INT1_vect)
{
 4c6:	1f 92       	push	r1
 4c8:	0f 92       	push	r0
 4ca:	0f b6       	in	r0, 0x3f	; 63
 4cc:	0f 92       	push	r0
 4ce:	11 24       	eor	r1, r1
 4d0:	2f 93       	push	r18
 4d2:	3f 93       	push	r19
 4d4:	4f 93       	push	r20
 4d6:	5f 93       	push	r21
 4d8:	6f 93       	push	r22
 4da:	7f 93       	push	r23
 4dc:	8f 93       	push	r24
 4de:	9f 93       	push	r25
 4e0:	af 93       	push	r26
 4e2:	bf 93       	push	r27
 4e4:	ef 93       	push	r30
 4e6:	ff 93       	push	r31
	setup++;
 4e8:	80 91 bc 00 	lds	r24, 0x00BC
 4ec:	8f 5f       	subi	r24, 0xFF	; 255
	setup%=2;
 4ee:	81 70       	andi	r24, 0x01	; 1
 4f0:	80 93 bc 00 	sts	0x00BC, r24
	if(setup==1)
 4f4:	81 30       	cpi	r24, 0x01	; 1
 4f6:	21 f4       	brne	.+8      	; 0x500 <__vector_2+0x3a>
	{
	led_1(on);
 4f8:	80 e0       	ldi	r24, 0x00	; 0
 4fa:	0e 94 2b 02 	call	0x456	; 0x456 <led_1>
 4fe:	03 c0       	rjmp	.+6      	; 0x506 <__vector_2+0x40>
	}
	else
	{
	led_1(off);
 500:	81 e0       	ldi	r24, 0x01	; 1
 502:	0e 94 2b 02 	call	0x456	; 0x456 <led_1>
	}
}
 506:	ff 91       	pop	r31
 508:	ef 91       	pop	r30
 50a:	bf 91       	pop	r27
 50c:	af 91       	pop	r26
 50e:	9f 91       	pop	r25
 510:	8f 91       	pop	r24
 512:	7f 91       	pop	r23
 514:	6f 91       	pop	r22
 516:	5f 91       	pop	r21
 518:	4f 91       	pop	r20
 51a:	3f 91       	pop	r19
 51c:	2f 91       	pop	r18
 51e:	0f 90       	pop	r0
 520:	0f be       	out	0x3f, r0	; 63
 522:	0f 90       	pop	r0
 524:	1f 90       	pop	r1
 526:	18 95       	reti

00000528 <CONTROL_OUT>:
unsigned char lcd_stt,loop_clr;// bien luu trang thai cua lcd

//setting control bits are output
void CONTROL_OUT(void)
{
LCDDIR|=LCD_CONTROL;	
 528:	8a b3       	in	r24, 0x1a	; 26
 52a:	8e 60       	ori	r24, 0x0E	; 14
 52c:	8a bb       	out	0x1a, r24	; 26
}
 52e:	08 95       	ret

00000530 <DATA_IN>:

//setting data bits are input
void DATA_IN(void)
{
	LCDDIR &=(~LCD_DATA);
 530:	8a b3       	in	r24, 0x1a	; 26
 532:	8f 70       	andi	r24, 0x0F	; 15
 534:	8a bb       	out	0x1a, r24	; 26
}
 536:	08 95       	ret

00000538 <DATA_OUT>:


//setting data bits are output
void DATA_OUT(void)
{
	LCDDIR|=LCD_DATA;
 538:	8a b3       	in	r24, 0x1a	; 26
 53a:	80 6f       	ori	r24, 0xF0	; 240
 53c:	8a bb       	out	0x1a, r24	; 26
}
 53e:	08 95       	ret

00000540 <all_dir_out>:

//setting all bits are output
void all_dir_out(void)
{
	LCDDIR|=LCD_DATA|LCD_CONTROL;
 540:	8a b3       	in	r24, 0x1a	; 26
 542:	8e 6f       	ori	r24, 0xFE	; 254
 544:	8a bb       	out	0x1a, r24	; 26
}
 546:	08 95       	ret

00000548 <pinE>:

//set or clr pinE
void pinE(unsigned char i)
{
	if(i==0){LCDPORT&= (~PIN_E);}
 548:	88 23       	and	r24, r24
 54a:	11 f4       	brne	.+4      	; 0x550 <pinE+0x8>
 54c:	db 98       	cbi	0x1b, 3	; 27
 54e:	08 95       	ret
		else LCDPORT |= PIN_E;
 550:	db 9a       	sbi	0x1b, 3	; 27
 552:	08 95       	ret

00000554 <pinRW>:
}
//set or clr pinRW
void pinRW(unsigned char i)
{
	if(i==0){LCDPORT &= (~PIN_RW);}
 554:	88 23       	and	r24, r24
 556:	11 f4       	brne	.+4      	; 0x55c <pinRW+0x8>
 558:	da 98       	cbi	0x1b, 2	; 27
 55a:	08 95       	ret
		else LCDPORT |= PIN_RW;
 55c:	da 9a       	sbi	0x1b, 2	; 27
 55e:	08 95       	ret

00000560 <pinRS>:
}
//set or clr pinRS
void pinRS(unsigned char i)
{
	if(i==0){LCDPORT &= (~PIN_RS);}
 560:	88 23       	and	r24, r24
 562:	11 f4       	brne	.+4      	; 0x568 <pinRS+0x8>
 564:	d9 98       	cbi	0x1b, 1	; 27
 566:	08 95       	ret
		else LCDPORT|=PIN_RS;
 568:	d9 9a       	sbi	0x1b, 1	; 27
 56a:	08 95       	ret

0000056c <lcd_read_stt>:
}
//read status from LCD
void lcd_read_stt(void)
{
	DATA_IN();
 56c:	0e 94 98 02 	call	0x530	; 0x530 <DATA_IN>
	CONTROL_OUT();
 570:	0e 94 94 02 	call	0x528	; 0x528 <CONTROL_OUT>
	pinRW(1);
 574:	81 e0       	ldi	r24, 0x01	; 1
 576:	0e 94 aa 02 	call	0x554	; 0x554 <pinRW>
	pinRS(0);
 57a:	80 e0       	ldi	r24, 0x00	; 0
 57c:	0e 94 b0 02 	call	0x560	; 0x560 <pinRS>
	pinE(1);
 580:	81 e0       	ldi	r24, 0x01	; 1
 582:	0e 94 a4 02 	call	0x548	; 0x548 <pinE>
	//_delay_ms(1);
	lcd_stt=LCDPIN&0xf0;//lay 4 bit trang thai cao truoc
 586:	89 b3       	in	r24, 0x19	; 25
 588:	80 7f       	andi	r24, 0xF0	; 240
 58a:	80 93 a0 00 	sts	0x00A0, r24
	pinE(0);//chot du lieu dau ra
 58e:	80 e0       	ldi	r24, 0x00	; 0
 590:	0e 94 a4 02 	call	0x548	; 0x548 <pinE>
	//_delay_ms(1);
	pinE(1);
 594:	81 e0       	ldi	r24, 0x01	; 1
 596:	0e 94 a4 02 	call	0x548	; 0x548 <pinE>
	//_delay_ms(1);
	lcd_stt|=(LCDPIN&0xf0)>>4;//lay not 4 bit du lieu thap
 59a:	89 b3       	in	r24, 0x19	; 25
 59c:	82 95       	swap	r24
 59e:	8f 70       	andi	r24, 0x0F	; 15
 5a0:	90 91 a0 00 	lds	r25, 0x00A0
 5a4:	89 2b       	or	r24, r25
 5a6:	80 93 a0 00 	sts	0x00A0, r24
	pinE(0);
 5aa:	80 e0       	ldi	r24, 0x00	; 0
 5ac:	0e 94 a4 02 	call	0x548	; 0x548 <pinE>
	
}
 5b0:	08 95       	ret

000005b2 <wait>:
//wait when lcd is busy
void wait(void)
{    
	lcd_read_stt();
 5b2:	0e 94 b6 02 	call	0x56c	; 0x56c <lcd_read_stt>
	while(lcd_stt&0x80){lcd_read_stt();}//khi bit7=1: lcd ban, doc trang thai tiep
 5b6:	80 91 a0 00 	lds	r24, 0x00A0
 5ba:	88 23       	and	r24, r24
 5bc:	34 f4       	brge	.+12     	; 0x5ca <wait+0x18>
 5be:	0e 94 b6 02 	call	0x56c	; 0x56c <lcd_read_stt>
 5c2:	80 91 a0 00 	lds	r24, 0x00A0
 5c6:	88 23       	and	r24, r24
 5c8:	d4 f3       	brlt	.-12     	; 0x5be <wait+0xc>
	all_dir_out();//lcd roi, thoat
 5ca:	0e 94 a0 02 	call	0x540	; 0x540 <all_dir_out>
}
 5ce:	08 95       	ret

000005d0 <lcd_write_4bit>:
* Write 4-bits to LCD controller                                               *
*   Parameter:    c:      command to be written                                *
*   Return:                                                                    *
*******************************************************************************/
void lcd_write_4bit(unsigned char c)
{
 5d0:	1f 93       	push	r17
 5d2:	18 2f       	mov	r17, r24
	all_dir_out();
 5d4:	0e 94 a0 02 	call	0x540	; 0x540 <all_dir_out>
	pinRW(0);//ghi vao LCD
 5d8:	80 e0       	ldi	r24, 0x00	; 0
 5da:	0e 94 aa 02 	call	0x554	; 0x554 <pinRW>
	pinE(1);
 5de:	81 e0       	ldi	r24, 0x01	; 1
 5e0:	0e 94 a4 02 	call	0x548	; 0x548 <pinE>
	LCDPORT &= (~LCD_DATA);//xoa 4 bit du lieu can ghi
 5e4:	8b b3       	in	r24, 0x1b	; 27
 5e6:	8f 70       	andi	r24, 0x0F	; 15
 5e8:	8b bb       	out	0x1b, r24	; 27
	LCDPORT|= (c&0x0f)<<4;//ghi du lieu vao 4bit cao cua LCD
 5ea:	8b b3       	in	r24, 0x1b	; 27
 5ec:	12 95       	swap	r17
 5ee:	10 7f       	andi	r17, 0xF0	; 240
 5f0:	18 2b       	or	r17, r24
 5f2:	1b bb       	out	0x1b, r17	; 27
	#else
		//round up by default
		__ticks_dc = (uint32_t)(ceil(fabs(__tmp)));
	#endif

	__builtin_avr_delay_cycles(__ticks_dc);
 5f4:	8f e3       	ldi	r24, 0x3F	; 63
 5f6:	9f e1       	ldi	r25, 0x1F	; 31
 5f8:	01 97       	sbiw	r24, 0x01	; 1
 5fa:	f1 f7       	brne	.-4      	; 0x5f8 <lcd_write_4bit+0x28>
 5fc:	00 c0       	rjmp	.+0      	; 0x5fe <lcd_write_4bit+0x2e>
 5fe:	00 00       	nop
	_delay_ms(2);
	pinE(0);
 600:	80 e0       	ldi	r24, 0x00	; 0
 602:	0e 94 a4 02 	call	0x548	; 0x548 <pinE>
	
}
 606:	1f 91       	pop	r17
 608:	08 95       	ret

0000060a <lcd_write_cmd>:
* Write command to LCD controller                                              *
*   Parameter:    c:      command to be written                                *
*   Return:                                                                    *
*******************************************************************************/
void lcd_write_cmd(unsigned char c)
{     
 60a:	1f 93       	push	r17
 60c:	18 2f       	mov	r17, r24
	wait();
 60e:	0e 94 d9 02 	call	0x5b2	; 0x5b2 <wait>
	pinRS(0);//chon thanh ghi lenh
 612:	80 e0       	ldi	r24, 0x00	; 0
 614:	0e 94 b0 02 	call	0x560	; 0x560 <pinRS>
	lcd_write_4bit(c>>4);//ghi 4 bit cao cua lenh truoc
 618:	81 2f       	mov	r24, r17
 61a:	82 95       	swap	r24
 61c:	8f 70       	andi	r24, 0x0F	; 15
 61e:	0e 94 e8 02 	call	0x5d0	; 0x5d0 <lcd_write_4bit>
	lcd_write_4bit(c);//ghi 4 bit thap cua lenh 	
 622:	81 2f       	mov	r24, r17
 624:	0e 94 e8 02 	call	0x5d0	; 0x5d0 <lcd_write_4bit>
}
 628:	1f 91       	pop	r17
 62a:	08 95       	ret

0000062c <lcd_write_data>:
* Write data to LCD controller                                                 *
*   Parameter:    c:      data to be written                                   *
*   Return:                                                                    *
*******************************************************************************/
void lcd_write_data(unsigned char c)
{
 62c:	1f 93       	push	r17
 62e:	18 2f       	mov	r17, r24
	wait();
 630:	0e 94 d9 02 	call	0x5b2	; 0x5b2 <wait>
	pinRS(1);//chon thanh ghi du lieu
 634:	81 e0       	ldi	r24, 0x01	; 1
 636:	0e 94 b0 02 	call	0x560	; 0x560 <pinRS>
	lcd_write_4bit(c>>4);//ghi 4 bit cao cua du lieu truoc
 63a:	81 2f       	mov	r24, r17
 63c:	82 95       	swap	r24
 63e:	8f 70       	andi	r24, 0x0F	; 15
 640:	0e 94 e8 02 	call	0x5d0	; 0x5d0 <lcd_write_4bit>
	lcd_write_4bit(c);//ghi 4 bit thap cua du lieu sau
 644:	81 2f       	mov	r24, r17
 646:	0e 94 e8 02 	call	0x5d0	; 0x5d0 <lcd_write_4bit>
}
 64a:	1f 91       	pop	r17
 64c:	08 95       	ret

0000064e <lcd_putchar>:
*   Parameter:    c:      character to be printed                              *
*   Return:                                                                    *
*******************************************************************************/
void lcd_putchar(unsigned char c)
{
	lcd_write_data(c);
 64e:	0e 94 16 03 	call	0x62c	; 0x62c <lcd_write_data>
}
 652:	08 95       	ret

00000654 <lcd_init>:
*   Parameter:                                                                 *
*   Return:                                                                    *
*******************************************************************************/
void lcd_init(void)
{	
  lcd_write_cmd (0x3); /* Select 4-bit interface             */
 654:	83 e0       	ldi	r24, 0x03	; 3
 656:	0e 94 05 03 	call	0x60a	; 0x60a <lcd_write_cmd>
 65a:	8f ef       	ldi	r24, 0xFF	; 255
 65c:	9d ee       	ldi	r25, 0xED	; 237
 65e:	a2 e0       	ldi	r26, 0x02	; 2
 660:	81 50       	subi	r24, 0x01	; 1
 662:	90 40       	sbci	r25, 0x00	; 0
 664:	a0 40       	sbci	r26, 0x00	; 0
 666:	e1 f7       	brne	.-8      	; 0x660 <lcd_init+0xc>
 668:	00 c0       	rjmp	.+0      	; 0x66a <lcd_init+0x16>
 66a:	00 00       	nop
  _delay_ms(60); // tao tre
  lcd_write_cmd (0x3);   
 66c:	83 e0       	ldi	r24, 0x03	; 3
 66e:	0e 94 05 03 	call	0x60a	; 0x60a <lcd_write_cmd>
 672:	8f ef       	ldi	r24, 0xFF	; 255
 674:	9d ee       	ldi	r25, 0xED	; 237
 676:	a2 e0       	ldi	r26, 0x02	; 2
 678:	81 50       	subi	r24, 0x01	; 1
 67a:	90 40       	sbci	r25, 0x00	; 0
 67c:	a0 40       	sbci	r26, 0x00	; 0
 67e:	e1 f7       	brne	.-8      	; 0x678 <lcd_init+0x24>
 680:	00 c0       	rjmp	.+0      	; 0x682 <lcd_init+0x2e>
 682:	00 00       	nop
  _delay_ms(60); // tao tre
  lcd_write_cmd (0x3);   
 684:	83 e0       	ldi	r24, 0x03	; 3
 686:	0e 94 05 03 	call	0x60a	; 0x60a <lcd_write_cmd>
 68a:	8f ef       	ldi	r24, 0xFF	; 255
 68c:	9d ee       	ldi	r25, 0xED	; 237
 68e:	a2 e0       	ldi	r26, 0x02	; 2
 690:	81 50       	subi	r24, 0x01	; 1
 692:	90 40       	sbci	r25, 0x00	; 0
 694:	a0 40       	sbci	r26, 0x00	; 0
 696:	e1 f7       	brne	.-8      	; 0x690 <lcd_init+0x3c>
 698:	00 c0       	rjmp	.+0      	; 0x69a <lcd_init+0x46>
 69a:	00 00       	nop
  _delay_ms(60); // tao tre
  lcd_write_cmd (0x2);	  //tro ve dau dong
 69c:	82 e0       	ldi	r24, 0x02	; 2
 69e:	0e 94 05 03 	call	0x60a	; 0x60a <lcd_write_cmd>
  lcd_write_cmd (0x28);    /* 2 lines, 5x8 character matrix      */
 6a2:	88 e2       	ldi	r24, 0x28	; 40
 6a4:	0e 94 05 03 	call	0x60a	; 0x60a <lcd_write_cmd>
  lcd_write_cmd (0x0C); //bat hien thi, tat con tro               
 6a8:	8c e0       	ldi	r24, 0x0C	; 12
 6aa:	0e 94 05 03 	call	0x60a	; 0x60a <lcd_write_cmd>
                         /* Display ctrl:Disp=ON,Curs/Blnk=OFF */
  lcd_write_cmd (0x06);                 /* Entry mode: Move right, no shift   */
 6ae:	86 e0       	ldi	r24, 0x06	; 6
 6b0:	0e 94 05 03 	call	0x60a	; 0x60a <lcd_write_cmd>
  lcd_write_cmd(0x01);//xoa man hinh hien thi	
 6b4:	81 e0       	ldi	r24, 0x01	; 1
 6b6:	0e 94 05 03 	call	0x60a	; 0x60a <lcd_write_cmd>
  lcd_write_cmd(0x80);
 6ba:	80 e8       	ldi	r24, 0x80	; 128
 6bc:	0e 94 05 03 	call	0x60a	; 0x60a <lcd_write_cmd>
}
 6c0:	08 95       	ret

000006c2 <lcd_set_cs>:
*   Parameter:    column: column position                                      *
*                 line:   line position                                        *
*   Return:                                                                    *
*******************************************************************************/
void lcd_set_cs(unsigned char hang,unsigned char cot)
{
 6c2:	0f 93       	push	r16
 6c4:	1f 93       	push	r17
 6c6:	06 2f       	mov	r16, r22
	unsigned char i;
	if(hang==1)
 6c8:	81 30       	cpi	r24, 0x01	; 1
 6ca:	31 f4       	brne	.+12     	; 0x6d8 <lcd_set_cs+0x16>
	{
		lcd_write_cmd(0x80);
 6cc:	80 e8       	ldi	r24, 0x80	; 128
 6ce:	0e 94 05 03 	call	0x60a	; 0x60a <lcd_write_cmd>
	}	
	else 
	{
		lcd_write_cmd(0xD4);
	}
	for(i=0;i<cot;i++){lcd_write_cmd(0x14);}
 6d2:	00 23       	and	r16, r16
 6d4:	89 f4       	brne	.+34     	; 0x6f8 <lcd_set_cs+0x36>
 6d6:	17 c0       	rjmp	.+46     	; 0x706 <lcd_set_cs+0x44>
	unsigned char i;
	if(hang==1)
	{
		lcd_write_cmd(0x80);
	}//neu la hang 1 dua con tro ve dau dong thu nhat
	else if(hang==2)
 6d8:	82 30       	cpi	r24, 0x02	; 2
 6da:	21 f4       	brne	.+8      	; 0x6e4 <lcd_set_cs+0x22>
	{
		lcd_write_cmd(0xc0);
 6dc:	80 ec       	ldi	r24, 0xC0	; 192
 6de:	0e 94 05 03 	call	0x60a	; 0x60a <lcd_write_cmd>
 6e2:	f7 cf       	rjmp	.-18     	; 0x6d2 <lcd_set_cs+0x10>
	}
	else if(hang==3)
 6e4:	83 30       	cpi	r24, 0x03	; 3
 6e6:	21 f4       	brne	.+8      	; 0x6f0 <lcd_set_cs+0x2e>
	{
		lcd_write_cmd(0x94);
 6e8:	84 e9       	ldi	r24, 0x94	; 148
 6ea:	0e 94 05 03 	call	0x60a	; 0x60a <lcd_write_cmd>
 6ee:	f1 cf       	rjmp	.-30     	; 0x6d2 <lcd_set_cs+0x10>
	}	
	else 
	{
		lcd_write_cmd(0xD4);
 6f0:	84 ed       	ldi	r24, 0xD4	; 212
 6f2:	0e 94 05 03 	call	0x60a	; 0x60a <lcd_write_cmd>
 6f6:	ed cf       	rjmp	.-38     	; 0x6d2 <lcd_set_cs+0x10>
	}
	for(i=0;i<cot;i++){lcd_write_cmd(0x14);}
 6f8:	10 e0       	ldi	r17, 0x00	; 0
 6fa:	84 e1       	ldi	r24, 0x14	; 20
 6fc:	0e 94 05 03 	call	0x60a	; 0x60a <lcd_write_cmd>
 700:	1f 5f       	subi	r17, 0xFF	; 255
 702:	10 17       	cp	r17, r16
 704:	d0 f3       	brcs	.-12     	; 0x6fa <lcd_set_cs+0x38>
}
 706:	1f 91       	pop	r17
 708:	0f 91       	pop	r16
 70a:	08 95       	ret

0000070c <lcd_clr>:
/*******************************************************************************
* Xoa man hinh LCD                                              *
*******************************************************************************/
void lcd_clr(void)
{
	lcd_write_cmd(0x01);
 70c:	81 e0       	ldi	r24, 0x01	; 1
 70e:	0e 94 05 03 	call	0x60a	; 0x60a <lcd_write_cmd>
}
 712:	08 95       	ret

00000714 <lcd_send_string>:
/************************************************************************/
/* lcd send string                                                    */
/************************************************************************/
void lcd_send_string (unsigned char const *string)// lenh in 1 xau ki tu *string
{
 714:	cf 93       	push	r28
 716:	df 93       	push	r29
 718:	ec 01       	movw	r28, r24
  while (*string)
 71a:	88 81       	ld	r24, Y
 71c:	88 23       	and	r24, r24
 71e:	31 f0       	breq	.+12     	; 0x72c <lcd_send_string+0x18>
	lcd_write_cmd(0x01);
}
/************************************************************************/
/* lcd send string                                                    */
/************************************************************************/
void lcd_send_string (unsigned char const *string)// lenh in 1 xau ki tu *string
 720:	21 96       	adiw	r28, 0x01	; 1
{
  while (*string)
  {
    lcd_putchar(*string++); //in ra gia tri 1 ki tu cua xau, dc tro boi con tro *string
 722:	0e 94 27 03 	call	0x64e	; 0x64e <lcd_putchar>
/************************************************************************/
/* lcd send string                                                    */
/************************************************************************/
void lcd_send_string (unsigned char const *string)// lenh in 1 xau ki tu *string
{
  while (*string)
 726:	89 91       	ld	r24, Y+
 728:	88 23       	and	r24, r24
 72a:	d9 f7       	brne	.-10     	; 0x722 <lcd_send_string+0xe>
  {
    lcd_putchar(*string++); //in ra gia tri 1 ki tu cua xau, dc tro boi con tro *string
  }
}
 72c:	df 91       	pop	r29
 72e:	cf 91       	pop	r28
 730:	08 95       	ret

00000732 <lcd_print_nb>:
/*******************************************************************************
* In so nguyen co 5 chu so                                                *
*******************************************************************************/
void lcd_print_nb(unsigned long n)//in so co 5 chu so ko co dau phay
{
 732:	9f 92       	push	r9
 734:	af 92       	push	r10
 736:	bf 92       	push	r11
 738:	cf 92       	push	r12
 73a:	df 92       	push	r13
 73c:	ef 92       	push	r14
 73e:	ff 92       	push	r15
 740:	0f 93       	push	r16
 742:	1f 93       	push	r17
	unsigned long a,b;
	if(n<10){lcd_putchar(n+48);}//so co 1 chu so
 744:	6a 30       	cpi	r22, 0x0A	; 10
 746:	71 05       	cpc	r23, r1
 748:	81 05       	cpc	r24, r1
 74a:	91 05       	cpc	r25, r1
 74c:	28 f4       	brcc	.+10     	; 0x758 <lcd_print_nb+0x26>
 74e:	86 2f       	mov	r24, r22
 750:	80 5d       	subi	r24, 0xD0	; 208
 752:	0e 94 27 03 	call	0x64e	; 0x64e <lcd_putchar>
 756:	c4 c0       	rjmp	.+392    	; 0x8e0 <lcd_print_nb+0x1ae>
	  else 
	if(n<100)//so co 2 chu so
 758:	64 36       	cpi	r22, 0x64	; 100
 75a:	71 05       	cpc	r23, r1
 75c:	81 05       	cpc	r24, r1
 75e:	91 05       	cpc	r25, r1
 760:	80 f4       	brcc	.+32     	; 0x782 <lcd_print_nb+0x50>
	{
		lcd_putchar(n/10+48);//in chu so hang chuc
 762:	2a e0       	ldi	r18, 0x0A	; 10
 764:	30 e0       	ldi	r19, 0x00	; 0
 766:	40 e0       	ldi	r20, 0x00	; 0
 768:	50 e0       	ldi	r21, 0x00	; 0
 76a:	0e 94 af 07 	call	0xf5e	; 0xf5e <__udivmodsi4>
 76e:	16 2f       	mov	r17, r22
 770:	82 2f       	mov	r24, r18
 772:	80 5d       	subi	r24, 0xD0	; 208
 774:	0e 94 27 03 	call	0x64e	; 0x64e <lcd_putchar>
		lcd_putchar(n%10+48);//in chu so hang don vi
 778:	81 2f       	mov	r24, r17
 77a:	80 5d       	subi	r24, 0xD0	; 208
 77c:	0e 94 27 03 	call	0x64e	; 0x64e <lcd_putchar>
 780:	af c0       	rjmp	.+350    	; 0x8e0 <lcd_print_nb+0x1ae>
	}
	
	  else
	if(n<1000)//so co 3 chu so
 782:	68 3e       	cpi	r22, 0xE8	; 232
 784:	23 e0       	ldi	r18, 0x03	; 3
 786:	72 07       	cpc	r23, r18
 788:	20 e0       	ldi	r18, 0x00	; 0
 78a:	82 07       	cpc	r24, r18
 78c:	20 e0       	ldi	r18, 0x00	; 0
 78e:	92 07       	cpc	r25, r18
 790:	18 f5       	brcc	.+70     	; 0x7d8 <lcd_print_nb+0xa6>
	{
		a=n/10;//a chua chu so hang tram va hang chuc
 792:	0f 2e       	mov	r0, r31
 794:	fa e0       	ldi	r31, 0x0A	; 10
 796:	ef 2e       	mov	r14, r31
 798:	f0 e0       	ldi	r31, 0x00	; 0
 79a:	ff 2e       	mov	r15, r31
 79c:	f0 e0       	ldi	r31, 0x00	; 0
 79e:	0f 2f       	mov	r16, r31
 7a0:	f0 e0       	ldi	r31, 0x00	; 0
 7a2:	1f 2f       	mov	r17, r31
 7a4:	f0 2d       	mov	r31, r0
 7a6:	a8 01       	movw	r20, r16
 7a8:	97 01       	movw	r18, r14
 7aa:	0e 94 af 07 	call	0xf5e	; 0xf5e <__udivmodsi4>
 7ae:	a6 2e       	mov	r10, r22
		lcd_putchar(a/10+48);//in chu so hang tram
 7b0:	ca 01       	movw	r24, r20
 7b2:	b9 01       	movw	r22, r18
 7b4:	a8 01       	movw	r20, r16
 7b6:	97 01       	movw	r18, r14
 7b8:	0e 94 af 07 	call	0xf5e	; 0xf5e <__udivmodsi4>
 7bc:	16 2f       	mov	r17, r22
 7be:	82 2f       	mov	r24, r18
 7c0:	80 5d       	subi	r24, 0xD0	; 208
 7c2:	0e 94 27 03 	call	0x64e	; 0x64e <lcd_putchar>
		lcd_putchar(a%10+48);//in chu so hang chuc
 7c6:	81 2f       	mov	r24, r17
 7c8:	80 5d       	subi	r24, 0xD0	; 208
 7ca:	0e 94 27 03 	call	0x64e	; 0x64e <lcd_putchar>
		lcd_putchar(n%10+48);//in chu so hang don vi
 7ce:	8a 2d       	mov	r24, r10
 7d0:	80 5d       	subi	r24, 0xD0	; 208
 7d2:	0e 94 27 03 	call	0x64e	; 0x64e <lcd_putchar>
 7d6:	84 c0       	rjmp	.+264    	; 0x8e0 <lcd_print_nb+0x1ae>
		
	}
	 else if(n<10000)//so co 4 chu so 
 7d8:	60 31       	cpi	r22, 0x10	; 16
 7da:	27 e2       	ldi	r18, 0x27	; 39
 7dc:	72 07       	cpc	r23, r18
 7de:	20 e0       	ldi	r18, 0x00	; 0
 7e0:	82 07       	cpc	r24, r18
 7e2:	20 e0       	ldi	r18, 0x00	; 0
 7e4:	92 07       	cpc	r25, r18
 7e6:	88 f5       	brcc	.+98     	; 0x84a <lcd_print_nb+0x118>
	{
		a=n/100;//chua hang nghin va hang tram
 7e8:	24 e6       	ldi	r18, 0x64	; 100
 7ea:	30 e0       	ldi	r19, 0x00	; 0
 7ec:	40 e0       	ldi	r20, 0x00	; 0
 7ee:	50 e0       	ldi	r21, 0x00	; 0
 7f0:	0e 94 af 07 	call	0xf5e	; 0xf5e <__udivmodsi4>
 7f4:	5b 01       	movw	r10, r22
 7f6:	6c 01       	movw	r12, r24
		b=n%100;//chua hang chuc va don vi
		lcd_putchar(a/10+48);//in so hang nghin
 7f8:	0f 2e       	mov	r0, r31
 7fa:	fa e0       	ldi	r31, 0x0A	; 10
 7fc:	ef 2e       	mov	r14, r31
 7fe:	f0 e0       	ldi	r31, 0x00	; 0
 800:	ff 2e       	mov	r15, r31
 802:	f0 e0       	ldi	r31, 0x00	; 0
 804:	0f 2f       	mov	r16, r31
 806:	f0 e0       	ldi	r31, 0x00	; 0
 808:	1f 2f       	mov	r17, r31
 80a:	f0 2d       	mov	r31, r0
 80c:	ca 01       	movw	r24, r20
 80e:	b9 01       	movw	r22, r18
 810:	a8 01       	movw	r20, r16
 812:	97 01       	movw	r18, r14
 814:	0e 94 af 07 	call	0xf5e	; 0xf5e <__udivmodsi4>
 818:	96 2e       	mov	r9, r22
 81a:	82 2f       	mov	r24, r18
 81c:	80 5d       	subi	r24, 0xD0	; 208
 81e:	0e 94 27 03 	call	0x64e	; 0x64e <lcd_putchar>
		lcd_putchar(a%10+48);//in so hang tram
 822:	89 2d       	mov	r24, r9
 824:	80 5d       	subi	r24, 0xD0	; 208
 826:	0e 94 27 03 	call	0x64e	; 0x64e <lcd_putchar>
		lcd_putchar(b/10+48);//in so hang chuc
 82a:	c6 01       	movw	r24, r12
 82c:	b5 01       	movw	r22, r10
 82e:	a8 01       	movw	r20, r16
 830:	97 01       	movw	r18, r14
 832:	0e 94 af 07 	call	0xf5e	; 0xf5e <__udivmodsi4>
 836:	16 2f       	mov	r17, r22
 838:	82 2f       	mov	r24, r18
 83a:	80 5d       	subi	r24, 0xD0	; 208
 83c:	0e 94 27 03 	call	0x64e	; 0x64e <lcd_putchar>
		lcd_putchar(b%10+48);//in so hang don vi
 840:	81 2f       	mov	r24, r17
 842:	80 5d       	subi	r24, 0xD0	; 208
 844:	0e 94 27 03 	call	0x64e	; 0x64e <lcd_putchar>
 848:	4b c0       	rjmp	.+150    	; 0x8e0 <lcd_print_nb+0x1ae>
		
	}	
	 else if(n<100000)//so co 5 chu so
 84a:	60 3a       	cpi	r22, 0xA0	; 160
 84c:	26 e8       	ldi	r18, 0x86	; 134
 84e:	72 07       	cpc	r23, r18
 850:	21 e0       	ldi	r18, 0x01	; 1
 852:	82 07       	cpc	r24, r18
 854:	20 e0       	ldi	r18, 0x00	; 0
 856:	92 07       	cpc	r25, r18
 858:	08 f0       	brcs	.+2      	; 0x85c <lcd_print_nb+0x12a>
 85a:	42 c0       	rjmp	.+132    	; 0x8e0 <lcd_print_nb+0x1ae>
	 {
		a=n/1000;//chua hang chuc nghin va hang nghin
 85c:	28 ee       	ldi	r18, 0xE8	; 232
 85e:	33 e0       	ldi	r19, 0x03	; 3
 860:	40 e0       	ldi	r20, 0x00	; 0
 862:	50 e0       	ldi	r21, 0x00	; 0
 864:	0e 94 af 07 	call	0xf5e	; 0xf5e <__udivmodsi4>
 868:	5b 01       	movw	r10, r22
 86a:	6c 01       	movw	r12, r24
		b=n%1000;//chua hang tram,chuc va don vi
		lcd_putchar(a/10+48);//in so hang chuc nghin
 86c:	0f 2e       	mov	r0, r31
 86e:	fa e0       	ldi	r31, 0x0A	; 10
 870:	ef 2e       	mov	r14, r31
 872:	f0 e0       	ldi	r31, 0x00	; 0
 874:	ff 2e       	mov	r15, r31
 876:	f0 e0       	ldi	r31, 0x00	; 0
 878:	0f 2f       	mov	r16, r31
 87a:	f0 e0       	ldi	r31, 0x00	; 0
 87c:	1f 2f       	mov	r17, r31
 87e:	f0 2d       	mov	r31, r0
 880:	ca 01       	movw	r24, r20
 882:	b9 01       	movw	r22, r18
 884:	a8 01       	movw	r20, r16
 886:	97 01       	movw	r18, r14
 888:	0e 94 af 07 	call	0xf5e	; 0xf5e <__udivmodsi4>
 88c:	96 2e       	mov	r9, r22
 88e:	82 2f       	mov	r24, r18
 890:	80 5d       	subi	r24, 0xD0	; 208
 892:	0e 94 27 03 	call	0x64e	; 0x64e <lcd_putchar>
		lcd_putchar(a%10+48);//in so hang nghin
 896:	89 2d       	mov	r24, r9
 898:	80 5d       	subi	r24, 0xD0	; 208
 89a:	0e 94 27 03 	call	0x64e	; 0x64e <lcd_putchar>
		lcd_putchar(b/100+48);//in so hang tram
 89e:	c6 01       	movw	r24, r12
 8a0:	b5 01       	movw	r22, r10
 8a2:	24 e6       	ldi	r18, 0x64	; 100
 8a4:	30 e0       	ldi	r19, 0x00	; 0
 8a6:	40 e0       	ldi	r20, 0x00	; 0
 8a8:	50 e0       	ldi	r21, 0x00	; 0
 8aa:	0e 94 af 07 	call	0xf5e	; 0xf5e <__udivmodsi4>
 8ae:	82 2f       	mov	r24, r18
 8b0:	80 5d       	subi	r24, 0xD0	; 208
 8b2:	0e 94 27 03 	call	0x64e	; 0x64e <lcd_putchar>
		lcd_putchar((b/10)%10+48);//in so hang don chuc
 8b6:	c6 01       	movw	r24, r12
 8b8:	b5 01       	movw	r22, r10
 8ba:	a8 01       	movw	r20, r16
 8bc:	97 01       	movw	r18, r14
 8be:	0e 94 af 07 	call	0xf5e	; 0xf5e <__udivmodsi4>
 8c2:	a6 2e       	mov	r10, r22
 8c4:	ca 01       	movw	r24, r20
 8c6:	b9 01       	movw	r22, r18
 8c8:	a8 01       	movw	r20, r16
 8ca:	97 01       	movw	r18, r14
 8cc:	0e 94 af 07 	call	0xf5e	; 0xf5e <__udivmodsi4>
 8d0:	86 2f       	mov	r24, r22
 8d2:	80 5d       	subi	r24, 0xD0	; 208
 8d4:	0e 94 27 03 	call	0x64e	; 0x64e <lcd_putchar>
		lcd_putchar(b%10+48);//in so hang don vi
 8d8:	8a 2d       	mov	r24, r10
 8da:	80 5d       	subi	r24, 0xD0	; 208
 8dc:	0e 94 27 03 	call	0x64e	; 0x64e <lcd_putchar>
		
	 }		 
		
}
 8e0:	1f 91       	pop	r17
 8e2:	0f 91       	pop	r16
 8e4:	ff 90       	pop	r15
 8e6:	ef 90       	pop	r14
 8e8:	df 90       	pop	r13
 8ea:	cf 90       	pop	r12
 8ec:	bf 90       	pop	r11
 8ee:	af 90       	pop	r10
 8f0:	9f 90       	pop	r9
 8f2:	08 95       	ret

000008f4 <lcd_print_rnb>:

/*******************************************************************************
* In so co 3 chu so truoc dau phay, 3 chu so sau dau phay                                                *
*******************************************************************************/
void lcd_print_rnb(float r)//in so thap phan co 4 chu so sau dau phay
{
 8f4:	af 92       	push	r10
 8f6:	bf 92       	push	r11
 8f8:	cf 92       	push	r12
 8fa:	df 92       	push	r13
 8fc:	ef 92       	push	r14
 8fe:	ff 92       	push	r15
 900:	0f 93       	push	r16
 902:	1f 93       	push	r17
 904:	5b 01       	movw	r10, r22
 906:	6c 01       	movw	r12, r24
	unsigned long p_nguyen;
	unsigned int t_phan;
	
	if(r<0)// them dau tru neu la so am
 908:	20 e0       	ldi	r18, 0x00	; 0
 90a:	30 e0       	ldi	r19, 0x00	; 0
 90c:	a9 01       	movw	r20, r18
 90e:	0e 94 56 06 	call	0xcac	; 0xcac <__cmpsf2>
 912:	88 23       	and	r24, r24
 914:	3c f4       	brge	.+14     	; 0x924 <lcd_print_rnb+0x30>
	{
	lcd_putchar(45);
 916:	8d e2       	ldi	r24, 0x2D	; 45
 918:	0e 94 27 03 	call	0x64e	; 0x64e <lcd_putchar>
	r=-r;
 91c:	d7 fa       	bst	r13, 7
 91e:	d0 94       	com	r13
 920:	d7 f8       	bld	r13, 7
 922:	d0 94       	com	r13
	}
	
	p_nguyen=r/1;
 924:	c6 01       	movw	r24, r12
 926:	b5 01       	movw	r22, r10
 928:	0e 94 5a 06 	call	0xcb4	; 0xcb4 <__fixunssfsi>
 92c:	e6 2e       	mov	r14, r22
 92e:	f7 2e       	mov	r15, r23
 930:	08 2f       	mov	r16, r24
 932:	19 2f       	mov	r17, r25
	t_phan=(r-p_nguyen)*1000/1;//lay ba chu so sau dau phay, sau do in ra ca 3 ki tu so nay
 934:	0e 94 86 06 	call	0xd0c	; 0xd0c <__floatunsisf>
 938:	9b 01       	movw	r18, r22
 93a:	ac 01       	movw	r20, r24
 93c:	c6 01       	movw	r24, r12
 93e:	b5 01       	movw	r22, r10
 940:	0e 94 f1 05 	call	0xbe2	; 0xbe2 <__subsf3>
 944:	20 e0       	ldi	r18, 0x00	; 0
 946:	30 e0       	ldi	r19, 0x00	; 0
 948:	4a e7       	ldi	r20, 0x7A	; 122
 94a:	54 e4       	ldi	r21, 0x44	; 68
 94c:	0e 94 38 07 	call	0xe70	; 0xe70 <__mulsf3>
 950:	0e 94 5a 06 	call	0xcb4	; 0xcb4 <__fixunssfsi>
 954:	5b 01       	movw	r10, r22
	lcd_print_nb(p_nguyen);
 956:	6e 2d       	mov	r22, r14
 958:	7f 2d       	mov	r23, r15
 95a:	80 2f       	mov	r24, r16
 95c:	91 2f       	mov	r25, r17
 95e:	0e 94 99 03 	call	0x732	; 0x732 <lcd_print_nb>
	lcd_putchar(46);
 962:	8e e2       	ldi	r24, 0x2E	; 46
 964:	0e 94 27 03 	call	0x64e	; 0x64e <lcd_putchar>
	lcd_putchar((t_phan/100)+48);
 968:	c5 01       	movw	r24, r10
 96a:	64 e6       	ldi	r22, 0x64	; 100
 96c:	70 e0       	ldi	r23, 0x00	; 0
 96e:	0e 94 9b 07 	call	0xf36	; 0xf36 <__udivmodhi4>
 972:	7c 01       	movw	r14, r24
 974:	86 2f       	mov	r24, r22
 976:	80 5d       	subi	r24, 0xD0	; 208
 978:	0e 94 27 03 	call	0x64e	; 0x64e <lcd_putchar>
	lcd_putchar((t_phan%100)/10+48);
 97c:	0a e0       	ldi	r16, 0x0A	; 10
 97e:	10 e0       	ldi	r17, 0x00	; 0
 980:	c7 01       	movw	r24, r14
 982:	b8 01       	movw	r22, r16
 984:	0e 94 9b 07 	call	0xf36	; 0xf36 <__udivmodhi4>
 988:	86 2f       	mov	r24, r22
 98a:	80 5d       	subi	r24, 0xD0	; 208
 98c:	0e 94 27 03 	call	0x64e	; 0x64e <lcd_putchar>
	lcd_putchar(t_phan%10+48);
 990:	c5 01       	movw	r24, r10
 992:	b8 01       	movw	r22, r16
 994:	0e 94 9b 07 	call	0xf36	; 0xf36 <__udivmodhi4>
 998:	80 5d       	subi	r24, 0xD0	; 208
 99a:	0e 94 27 03 	call	0x64e	; 0x64e <lcd_putchar>
}
 99e:	1f 91       	pop	r17
 9a0:	0f 91       	pop	r16
 9a2:	ff 90       	pop	r15
 9a4:	ef 90       	pop	r14
 9a6:	df 90       	pop	r13
 9a8:	cf 90       	pop	r12
 9aa:	bf 90       	pop	r11
 9ac:	af 90       	pop	r10
 9ae:	08 95       	ret

000009b0 <lcd_xuongdong>:
/************************************************************************/
/* Xuong dong                                                           */
/************************************************************************/
void lcd_xuongdong(void)
{
	lcd_putchar(13);
 9b0:	8d e0       	ldi	r24, 0x0D	; 13
 9b2:	0e 94 27 03 	call	0x64e	; 0x64e <lcd_putchar>
}
 9b6:	08 95       	ret

000009b8 <lcd_print_hexnb>:


//-------- all convert to hexa then print  -------------
void lcd_print_hexnb(int x_var)
{
 9b8:	ef 92       	push	r14
 9ba:	ff 92       	push	r15
 9bc:	0f 93       	push	r16
 9be:	1f 93       	push	r17
 9c0:	df 93       	push	r29
 9c2:	cf 93       	push	r28
 9c4:	00 d0       	rcall	.+0      	; 0x9c6 <lcd_print_hexnb+0xe>
 9c6:	00 d0       	rcall	.+0      	; 0x9c8 <lcd_print_hexnb+0x10>
 9c8:	cd b7       	in	r28, 0x3d	; 61
 9ca:	de b7       	in	r29, 0x3e	; 62
	unsigned char x[4],i;	
	//x[4]=(x_var&0xf0000)>>16;
	x[3]=(x_var&0xf000)>>12;
 9cc:	29 2f       	mov	r18, r25
 9ce:	22 95       	swap	r18
 9d0:	2f 70       	andi	r18, 0x0F	; 15
 9d2:	2c 83       	std	Y+4, r18	; 0x04
	x[2]=(x_var&0xf00)>>8;
 9d4:	9c 01       	movw	r18, r24
 9d6:	20 70       	andi	r18, 0x00	; 0
 9d8:	3f 70       	andi	r19, 0x0F	; 15
 9da:	3b 83       	std	Y+3, r19	; 0x03
	x[1]=(x_var&0xf0)>>4;
 9dc:	9c 01       	movw	r18, r24
 9de:	20 7f       	andi	r18, 0xF0	; 240
 9e0:	30 70       	andi	r19, 0x00	; 0
 9e2:	35 95       	asr	r19
 9e4:	27 95       	ror	r18
 9e6:	35 95       	asr	r19
 9e8:	27 95       	ror	r18
 9ea:	35 95       	asr	r19
 9ec:	27 95       	ror	r18
 9ee:	35 95       	asr	r19
 9f0:	27 95       	ror	r18
 9f2:	2a 83       	std	Y+2, r18	; 0x02
	x[0]=(x_var&0x0f);
 9f4:	8f 70       	andi	r24, 0x0F	; 15
 9f6:	89 83       	std	Y+1, r24	; 0x01
 9f8:	8e 01       	movw	r16, r28
 9fa:	0b 5f       	subi	r16, 0xFB	; 251
 9fc:	1f 4f       	sbci	r17, 0xFF	; 255
	lcd_putchar(13);
}


//-------- all convert to hexa then print  -------------
void lcd_print_hexnb(int x_var)
 9fe:	7e 01       	movw	r14, r28
 a00:	08 94       	sec
 a02:	e1 1c       	adc	r14, r1
 a04:	f1 1c       	adc	r15, r1
	x[2]=(x_var&0xf00)>>8;
	x[1]=(x_var&0xf0)>>4;
	x[0]=(x_var&0x0f);
	for(i=4;i>0;i--)
	{
		if(x[i-1]>10 || x[i-1]==10){lcd_putchar(x[i-1]+55);}
 a06:	f8 01       	movw	r30, r16
 a08:	82 91       	ld	r24, -Z
 a0a:	8f 01       	movw	r16, r30
 a0c:	8a 30       	cpi	r24, 0x0A	; 10
 a0e:	20 f0       	brcs	.+8      	; 0xa18 <lcd_print_hexnb+0x60>
 a10:	89 5c       	subi	r24, 0xC9	; 201
 a12:	0e 94 27 03 	call	0x64e	; 0x64e <lcd_putchar>
 a16:	03 c0       	rjmp	.+6      	; 0xa1e <lcd_print_hexnb+0x66>
			else{lcd_putchar(x[i-1]+48);}
 a18:	80 5d       	subi	r24, 0xD0	; 208
 a1a:	0e 94 27 03 	call	0x64e	; 0x64e <lcd_putchar>
	//x[4]=(x_var&0xf0000)>>16;
	x[3]=(x_var&0xf000)>>12;
	x[2]=(x_var&0xf00)>>8;
	x[1]=(x_var&0xf0)>>4;
	x[0]=(x_var&0x0f);
	for(i=4;i>0;i--)
 a1e:	0e 15       	cp	r16, r14
 a20:	1f 05       	cpc	r17, r15
 a22:	89 f7       	brne	.-30     	; 0xa06 <lcd_print_hexnb+0x4e>
		if(x[i-1]>10 || x[i-1]==10){lcd_putchar(x[i-1]+55);}
			else{lcd_putchar(x[i-1]+48);}
		//if(i==3){lcd_putchar(32);}
	}	
	
}
 a24:	0f 90       	pop	r0
 a26:	0f 90       	pop	r0
 a28:	0f 90       	pop	r0
 a2a:	0f 90       	pop	r0
 a2c:	cf 91       	pop	r28
 a2e:	df 91       	pop	r29
 a30:	1f 91       	pop	r17
 a32:	0f 91       	pop	r16
 a34:	ff 90       	pop	r15
 a36:	ef 90       	pop	r14
 a38:	08 95       	ret

00000a3a <lcd_print_int>:

/************************************************************************/
/* lcd print int number to decimal type                               */
/************************************************************************/
void lcd_print_int(int a)
{
 a3a:	ef 92       	push	r14
 a3c:	ff 92       	push	r15
 a3e:	0f 93       	push	r16
 a40:	1f 93       	push	r17
 a42:	cf 93       	push	r28
 a44:	df 93       	push	r29
 a46:	ec 01       	movw	r28, r24
	if((a&0x8000)==0)//so duong
 a48:	99 23       	and	r25, r25
 a4a:	44 f0       	brlt	.+16     	; 0xa5c <lcd_print_int+0x22>
		{
			lcd_print_nb(a);
 a4c:	be 01       	movw	r22, r28
 a4e:	88 27       	eor	r24, r24
 a50:	77 fd       	sbrc	r23, 7
 a52:	80 95       	com	r24
 a54:	98 2f       	mov	r25, r24
 a56:	0e 94 99 03 	call	0x732	; 0x732 <lcd_print_nb>
 a5a:	14 c0       	rjmp	.+40     	; 0xa84 <lcd_print_int+0x4a>
		}		
	else//so am
		{
			lcd_putchar(45);
 a5c:	8d e2       	ldi	r24, 0x2D	; 45
 a5e:	0e 94 27 03 	call	0x64e	; 0x64e <lcd_putchar>
			lcd_print_nb(65536-(unsigned int)a);
 a62:	ce 01       	movw	r24, r28
 a64:	a0 e0       	ldi	r26, 0x00	; 0
 a66:	b0 e0       	ldi	r27, 0x00	; 0
 a68:	20 e0       	ldi	r18, 0x00	; 0
 a6a:	30 e0       	ldi	r19, 0x00	; 0
 a6c:	41 e0       	ldi	r20, 0x01	; 1
 a6e:	50 e0       	ldi	r21, 0x00	; 0
 a70:	79 01       	movw	r14, r18
 a72:	8a 01       	movw	r16, r20
 a74:	e8 1a       	sub	r14, r24
 a76:	f9 0a       	sbc	r15, r25
 a78:	0a 0b       	sbc	r16, r26
 a7a:	1b 0b       	sbc	r17, r27
 a7c:	c8 01       	movw	r24, r16
 a7e:	b7 01       	movw	r22, r14
 a80:	0e 94 99 03 	call	0x732	; 0x732 <lcd_print_nb>
		}		
 a84:	df 91       	pop	r29
 a86:	cf 91       	pop	r28
 a88:	1f 91       	pop	r17
 a8a:	0f 91       	pop	r16
 a8c:	ff 90       	pop	r15
 a8e:	ef 90       	pop	r14
 a90:	08 95       	ret

00000a92 <main>:
unsigned char i,j;

int main(void)
{
	//------ system init ------------------
	lcd_init();
 a92:	0e 94 2a 03 	call	0x654	; 0x654 <lcd_init>
	button_init();
 a96:	0e 94 41 02 	call	0x482	; 0x482 <button_init>
	usart_init();
 a9a:	0e 94 49 00 	call	0x92	; 0x92 <usart_init>
	led_1(off);
 a9e:	81 e0       	ldi	r24, 0x01	; 1
 aa0:	0e 94 2b 02 	call	0x456	; 0x456 <led_1>
	led_2(off);
 aa4:	81 e0       	ldi	r24, 0x01	; 1
 aa6:	0e 94 36 02 	call	0x46c	; 0x46c <led_2>
	//-------------------------------------
	//---------- welcome note -----------------------	
	lcd_set_cs(1,5);
 aaa:	81 e0       	ldi	r24, 0x01	; 1
 aac:	65 e0       	ldi	r22, 0x05	; 5
 aae:	0e 94 61 03 	call	0x6c2	; 0x6c2 <lcd_set_cs>
	lcd_send_string("Burn-in Box");
 ab2:	80 e6       	ldi	r24, 0x60	; 96
 ab4:	90 e0       	ldi	r25, 0x00	; 0
 ab6:	0e 94 8a 03 	call	0x714	; 0x714 <lcd_send_string>
	lcd_set_cs(3,0);
 aba:	83 e0       	ldi	r24, 0x03	; 3
 abc:	60 e0       	ldi	r22, 0x00	; 0
 abe:	0e 94 61 03 	call	0x6c2	; 0x6c2 <lcd_set_cs>
	lcd_send_string("A VNPTtechnolgy's ");
 ac2:	8c e6       	ldi	r24, 0x6C	; 108
 ac4:	90 e0       	ldi	r25, 0x00	; 0
 ac6:	0e 94 8a 03 	call	0x714	; 0x714 <lcd_send_string>
	lcd_set_cs(4,0);
 aca:	84 e0       	ldi	r24, 0x04	; 4
 acc:	60 e0       	ldi	r22, 0x00	; 0
 ace:	0e 94 61 03 	call	0x6c2	; 0x6c2 <lcd_set_cs>
	lcd_send_string("simulation product");
 ad2:	8f e7       	ldi	r24, 0x7F	; 127
 ad4:	90 e0       	ldi	r25, 0x00	; 0
 ad6:	0e 94 8a 03 	call	0x714	; 0x714 <lcd_send_string>
	lcd_clr();
 ada:	0e 94 86 03 	call	0x70c	; 0x70c <lcd_clr>
	//------------------------------------------------
	setup=0;	
 ade:	10 92 bc 00 	sts	0x00BC, r1
		  }  
		//-------------------------------------
	    */
		
		//----- test data transmit by usart -------
		lcd_set_cs(2,3);
 ae2:	82 e0       	ldi	r24, 0x02	; 2
 ae4:	63 e0       	ldi	r22, 0x03	; 3
 ae6:	0e 94 61 03 	call	0x6c2	; 0x6c2 <lcd_set_cs>
		lcd_print_rnb(des_temp);
 aea:	60 91 92 00 	lds	r22, 0x0092
 aee:	70 91 93 00 	lds	r23, 0x0093
 af2:	80 91 94 00 	lds	r24, 0x0094
 af6:	90 91 95 00 	lds	r25, 0x0095
 afa:	0e 94 7a 04 	call	0x8f4	; 0x8f4 <lcd_print_rnb>
		//-----------------------------------------
		//------- lcd loop clear screen -------
		for(loop_clr=0;loop_clr<200;loop_clr++)
 afe:	10 92 a2 00 	sts	0x00A2, r1
 b02:	04 c0       	rjmp	.+8      	; 0xb0c <main+0x7a>
		  {
			  if(loop_clr==199)lcd_clr();
 b04:	87 3c       	cpi	r24, 0xC7	; 199
 b06:	11 f4       	brne	.+4      	; 0xb0c <main+0x7a>
 b08:	0e 94 86 03 	call	0x70c	; 0x70c <lcd_clr>
 b0c:	8f e9       	ldi	r24, 0x9F	; 159
 b0e:	9f e0       	ldi	r25, 0x0F	; 15
 b10:	01 97       	sbiw	r24, 0x01	; 1
 b12:	f1 f7       	brne	.-4      	; 0xb10 <main+0x7e>
 b14:	00 c0       	rjmp	.+0      	; 0xb16 <main+0x84>
 b16:	00 00       	nop
		//----- test data transmit by usart -------
		lcd_set_cs(2,3);
		lcd_print_rnb(des_temp);
		//-----------------------------------------
		//------- lcd loop clear screen -------
		for(loop_clr=0;loop_clr<200;loop_clr++)
 b18:	80 91 a2 00 	lds	r24, 0x00A2
 b1c:	8f 5f       	subi	r24, 0xFF	; 255
 b1e:	80 93 a2 00 	sts	0x00A2, r24
 b22:	88 3c       	cpi	r24, 0xC8	; 200
 b24:	f0 f6       	brcc	.-68     	; 0xae2 <main+0x50>
 b26:	ee cf       	rjmp	.-36     	; 0xb04 <main+0x72>

00000b28 <__vector_11>:
		}
		
}

ISR(USART_RXC_vect)
{
 b28:	1f 92       	push	r1
 b2a:	0f 92       	push	r0
 b2c:	0f b6       	in	r0, 0x3f	; 63
 b2e:	0f 92       	push	r0
 b30:	11 24       	eor	r1, r1
 b32:	2f 93       	push	r18
 b34:	3f 93       	push	r19
 b36:	4f 93       	push	r20
 b38:	5f 93       	push	r21
 b3a:	6f 93       	push	r22
 b3c:	7f 93       	push	r23
 b3e:	8f 93       	push	r24
 b40:	9f 93       	push	r25
 b42:	af 93       	push	r26
 b44:	bf 93       	push	r27
 b46:	ef 93       	push	r30
 b48:	ff 93       	push	r31
	rx_count_number++;
 b4a:	80 91 9e 00 	lds	r24, 0x009E
 b4e:	8f 5f       	subi	r24, 0xFF	; 255
 b50:	80 93 9e 00 	sts	0x009E, r24
	rx_data[rx_count_number-1]=UDR;
 b54:	9c b1       	in	r25, 0x0c	; 12
 b56:	e8 2f       	mov	r30, r24
 b58:	f0 e0       	ldi	r31, 0x00	; 0
 b5a:	ed 55       	subi	r30, 0x5D	; 93
 b5c:	ff 4f       	sbci	r31, 0xFF	; 255
 b5e:	90 83       	st	Z, r25
	if(rx_count_number==4)//nhan xong
 b60:	84 30       	cpi	r24, 0x04	; 4
 b62:	71 f5       	brne	.+92     	; 0xbc0 <__vector_11+0x98>
	{
		des_temp=(float) (rx_data[0]|(rx_data[1]<<4)|(rx_data[2]<<8)|(rx_data[3]<<12));
 b64:	60 91 a5 00 	lds	r22, 0x00A5
 b68:	70 e0       	ldi	r23, 0x00	; 0
 b6a:	62 95       	swap	r22
 b6c:	72 95       	swap	r23
 b6e:	70 7f       	andi	r23, 0xF0	; 240
 b70:	76 27       	eor	r23, r22
 b72:	60 7f       	andi	r22, 0xF0	; 240
 b74:	76 27       	eor	r23, r22
 b76:	90 91 a6 00 	lds	r25, 0x00A6
 b7a:	80 e0       	ldi	r24, 0x00	; 0
 b7c:	86 2b       	or	r24, r22
 b7e:	97 2b       	or	r25, r23
 b80:	e5 ea       	ldi	r30, 0xA5	; 165
 b82:	f0 e0       	ldi	r31, 0x00	; 0
 b84:	22 91       	ld	r18, -Z
 b86:	30 e0       	ldi	r19, 0x00	; 0
 b88:	bc 01       	movw	r22, r24
 b8a:	62 2b       	or	r22, r18
 b8c:	73 2b       	or	r23, r19
 b8e:	23 81       	ldd	r18, Z+3	; 0x03
 b90:	92 2f       	mov	r25, r18
 b92:	92 95       	swap	r25
 b94:	90 7f       	andi	r25, 0xF0	; 240
 b96:	80 e0       	ldi	r24, 0x00	; 0
 b98:	86 2b       	or	r24, r22
 b9a:	97 2b       	or	r25, r23
 b9c:	9c 01       	movw	r18, r24
 b9e:	b9 01       	movw	r22, r18
 ba0:	88 27       	eor	r24, r24
 ba2:	77 fd       	sbrc	r23, 7
 ba4:	80 95       	com	r24
 ba6:	98 2f       	mov	r25, r24
 ba8:	0e 94 88 06 	call	0xd10	; 0xd10 <__floatsisf>
 bac:	60 93 92 00 	sts	0x0092, r22
 bb0:	70 93 93 00 	sts	0x0093, r23
 bb4:	80 93 94 00 	sts	0x0094, r24
 bb8:	90 93 95 00 	sts	0x0095, r25
		rx_count_number=0;
 bbc:	10 92 9e 00 	sts	0x009E, r1
	}
	
 bc0:	ff 91       	pop	r31
 bc2:	ef 91       	pop	r30
 bc4:	bf 91       	pop	r27
 bc6:	af 91       	pop	r26
 bc8:	9f 91       	pop	r25
 bca:	8f 91       	pop	r24
 bcc:	7f 91       	pop	r23
 bce:	6f 91       	pop	r22
 bd0:	5f 91       	pop	r21
 bd2:	4f 91       	pop	r20
 bd4:	3f 91       	pop	r19
 bd6:	2f 91       	pop	r18
 bd8:	0f 90       	pop	r0
 bda:	0f be       	out	0x3f, r0	; 63
 bdc:	0f 90       	pop	r0
 bde:	1f 90       	pop	r1
 be0:	18 95       	reti

00000be2 <__subsf3>:
 be2:	50 58       	subi	r21, 0x80	; 128

00000be4 <__addsf3>:
 be4:	bb 27       	eor	r27, r27
 be6:	aa 27       	eor	r26, r26
 be8:	0e d0       	rcall	.+28     	; 0xc06 <__addsf3x>
 bea:	08 c1       	rjmp	.+528    	; 0xdfc <__fp_round>
 bec:	f9 d0       	rcall	.+498    	; 0xde0 <__fp_pscA>
 bee:	30 f0       	brcs	.+12     	; 0xbfc <__addsf3+0x18>
 bf0:	fe d0       	rcall	.+508    	; 0xdee <__fp_pscB>
 bf2:	20 f0       	brcs	.+8      	; 0xbfc <__addsf3+0x18>
 bf4:	31 f4       	brne	.+12     	; 0xc02 <__addsf3+0x1e>
 bf6:	9f 3f       	cpi	r25, 0xFF	; 255
 bf8:	11 f4       	brne	.+4      	; 0xbfe <__addsf3+0x1a>
 bfa:	1e f4       	brtc	.+6      	; 0xc02 <__addsf3+0x1e>
 bfc:	ee c0       	rjmp	.+476    	; 0xdda <__fp_nan>
 bfe:	0e f4       	brtc	.+2      	; 0xc02 <__addsf3+0x1e>
 c00:	e0 95       	com	r30
 c02:	e7 fb       	bst	r30, 7
 c04:	e4 c0       	rjmp	.+456    	; 0xdce <__fp_inf>

00000c06 <__addsf3x>:
 c06:	e9 2f       	mov	r30, r25
 c08:	0a d1       	rcall	.+532    	; 0xe1e <__fp_split3>
 c0a:	80 f3       	brcs	.-32     	; 0xbec <__addsf3+0x8>
 c0c:	ba 17       	cp	r27, r26
 c0e:	62 07       	cpc	r22, r18
 c10:	73 07       	cpc	r23, r19
 c12:	84 07       	cpc	r24, r20
 c14:	95 07       	cpc	r25, r21
 c16:	18 f0       	brcs	.+6      	; 0xc1e <__addsf3x+0x18>
 c18:	71 f4       	brne	.+28     	; 0xc36 <__addsf3x+0x30>
 c1a:	9e f5       	brtc	.+102    	; 0xc82 <__addsf3x+0x7c>
 c1c:	22 c1       	rjmp	.+580    	; 0xe62 <__fp_zero>
 c1e:	0e f4       	brtc	.+2      	; 0xc22 <__addsf3x+0x1c>
 c20:	e0 95       	com	r30
 c22:	0b 2e       	mov	r0, r27
 c24:	ba 2f       	mov	r27, r26
 c26:	a0 2d       	mov	r26, r0
 c28:	0b 01       	movw	r0, r22
 c2a:	b9 01       	movw	r22, r18
 c2c:	90 01       	movw	r18, r0
 c2e:	0c 01       	movw	r0, r24
 c30:	ca 01       	movw	r24, r20
 c32:	a0 01       	movw	r20, r0
 c34:	11 24       	eor	r1, r1
 c36:	ff 27       	eor	r31, r31
 c38:	59 1b       	sub	r21, r25
 c3a:	99 f0       	breq	.+38     	; 0xc62 <__addsf3x+0x5c>
 c3c:	59 3f       	cpi	r21, 0xF9	; 249
 c3e:	50 f4       	brcc	.+20     	; 0xc54 <__addsf3x+0x4e>
 c40:	50 3e       	cpi	r21, 0xE0	; 224
 c42:	68 f1       	brcs	.+90     	; 0xc9e <__addsf3x+0x98>
 c44:	1a 16       	cp	r1, r26
 c46:	f0 40       	sbci	r31, 0x00	; 0
 c48:	a2 2f       	mov	r26, r18
 c4a:	23 2f       	mov	r18, r19
 c4c:	34 2f       	mov	r19, r20
 c4e:	44 27       	eor	r20, r20
 c50:	58 5f       	subi	r21, 0xF8	; 248
 c52:	f3 cf       	rjmp	.-26     	; 0xc3a <__addsf3x+0x34>
 c54:	46 95       	lsr	r20
 c56:	37 95       	ror	r19
 c58:	27 95       	ror	r18
 c5a:	a7 95       	ror	r26
 c5c:	f0 40       	sbci	r31, 0x00	; 0
 c5e:	53 95       	inc	r21
 c60:	c9 f7       	brne	.-14     	; 0xc54 <__addsf3x+0x4e>
 c62:	7e f4       	brtc	.+30     	; 0xc82 <__addsf3x+0x7c>
 c64:	1f 16       	cp	r1, r31
 c66:	ba 0b       	sbc	r27, r26
 c68:	62 0b       	sbc	r22, r18
 c6a:	73 0b       	sbc	r23, r19
 c6c:	84 0b       	sbc	r24, r20
 c6e:	ba f0       	brmi	.+46     	; 0xc9e <__addsf3x+0x98>
 c70:	91 50       	subi	r25, 0x01	; 1
 c72:	a1 f0       	breq	.+40     	; 0xc9c <__addsf3x+0x96>
 c74:	ff 0f       	add	r31, r31
 c76:	bb 1f       	adc	r27, r27
 c78:	66 1f       	adc	r22, r22
 c7a:	77 1f       	adc	r23, r23
 c7c:	88 1f       	adc	r24, r24
 c7e:	c2 f7       	brpl	.-16     	; 0xc70 <__addsf3x+0x6a>
 c80:	0e c0       	rjmp	.+28     	; 0xc9e <__addsf3x+0x98>
 c82:	ba 0f       	add	r27, r26
 c84:	62 1f       	adc	r22, r18
 c86:	73 1f       	adc	r23, r19
 c88:	84 1f       	adc	r24, r20
 c8a:	48 f4       	brcc	.+18     	; 0xc9e <__addsf3x+0x98>
 c8c:	87 95       	ror	r24
 c8e:	77 95       	ror	r23
 c90:	67 95       	ror	r22
 c92:	b7 95       	ror	r27
 c94:	f7 95       	ror	r31
 c96:	9e 3f       	cpi	r25, 0xFE	; 254
 c98:	08 f0       	brcs	.+2      	; 0xc9c <__addsf3x+0x96>
 c9a:	b3 cf       	rjmp	.-154    	; 0xc02 <__addsf3+0x1e>
 c9c:	93 95       	inc	r25
 c9e:	88 0f       	add	r24, r24
 ca0:	08 f0       	brcs	.+2      	; 0xca4 <__addsf3x+0x9e>
 ca2:	99 27       	eor	r25, r25
 ca4:	ee 0f       	add	r30, r30
 ca6:	97 95       	ror	r25
 ca8:	87 95       	ror	r24
 caa:	08 95       	ret

00000cac <__cmpsf2>:
 cac:	6c d0       	rcall	.+216    	; 0xd86 <__fp_cmp>
 cae:	08 f4       	brcc	.+2      	; 0xcb2 <__cmpsf2+0x6>
 cb0:	81 e0       	ldi	r24, 0x01	; 1
 cb2:	08 95       	ret

00000cb4 <__fixunssfsi>:
 cb4:	bc d0       	rcall	.+376    	; 0xe2e <__fp_splitA>
 cb6:	88 f0       	brcs	.+34     	; 0xcda <__fixunssfsi+0x26>
 cb8:	9f 57       	subi	r25, 0x7F	; 127
 cba:	90 f0       	brcs	.+36     	; 0xce0 <__fixunssfsi+0x2c>
 cbc:	b9 2f       	mov	r27, r25
 cbe:	99 27       	eor	r25, r25
 cc0:	b7 51       	subi	r27, 0x17	; 23
 cc2:	a0 f0       	brcs	.+40     	; 0xcec <__fixunssfsi+0x38>
 cc4:	d1 f0       	breq	.+52     	; 0xcfa <__fixunssfsi+0x46>
 cc6:	66 0f       	add	r22, r22
 cc8:	77 1f       	adc	r23, r23
 cca:	88 1f       	adc	r24, r24
 ccc:	99 1f       	adc	r25, r25
 cce:	1a f0       	brmi	.+6      	; 0xcd6 <__fixunssfsi+0x22>
 cd0:	ba 95       	dec	r27
 cd2:	c9 f7       	brne	.-14     	; 0xcc6 <__fixunssfsi+0x12>
 cd4:	12 c0       	rjmp	.+36     	; 0xcfa <__fixunssfsi+0x46>
 cd6:	b1 30       	cpi	r27, 0x01	; 1
 cd8:	81 f0       	breq	.+32     	; 0xcfa <__fixunssfsi+0x46>
 cda:	c3 d0       	rcall	.+390    	; 0xe62 <__fp_zero>
 cdc:	b1 e0       	ldi	r27, 0x01	; 1
 cde:	08 95       	ret
 ce0:	c0 c0       	rjmp	.+384    	; 0xe62 <__fp_zero>
 ce2:	67 2f       	mov	r22, r23
 ce4:	78 2f       	mov	r23, r24
 ce6:	88 27       	eor	r24, r24
 ce8:	b8 5f       	subi	r27, 0xF8	; 248
 cea:	39 f0       	breq	.+14     	; 0xcfa <__fixunssfsi+0x46>
 cec:	b9 3f       	cpi	r27, 0xF9	; 249
 cee:	cc f3       	brlt	.-14     	; 0xce2 <__fixunssfsi+0x2e>
 cf0:	86 95       	lsr	r24
 cf2:	77 95       	ror	r23
 cf4:	67 95       	ror	r22
 cf6:	b3 95       	inc	r27
 cf8:	d9 f7       	brne	.-10     	; 0xcf0 <__fixunssfsi+0x3c>
 cfa:	3e f4       	brtc	.+14     	; 0xd0a <__fixunssfsi+0x56>
 cfc:	90 95       	com	r25
 cfe:	80 95       	com	r24
 d00:	70 95       	com	r23
 d02:	61 95       	neg	r22
 d04:	7f 4f       	sbci	r23, 0xFF	; 255
 d06:	8f 4f       	sbci	r24, 0xFF	; 255
 d08:	9f 4f       	sbci	r25, 0xFF	; 255
 d0a:	08 95       	ret

00000d0c <__floatunsisf>:
 d0c:	e8 94       	clt
 d0e:	09 c0       	rjmp	.+18     	; 0xd22 <__floatsisf+0x12>

00000d10 <__floatsisf>:
 d10:	97 fb       	bst	r25, 7
 d12:	3e f4       	brtc	.+14     	; 0xd22 <__floatsisf+0x12>
 d14:	90 95       	com	r25
 d16:	80 95       	com	r24
 d18:	70 95       	com	r23
 d1a:	61 95       	neg	r22
 d1c:	7f 4f       	sbci	r23, 0xFF	; 255
 d1e:	8f 4f       	sbci	r24, 0xFF	; 255
 d20:	9f 4f       	sbci	r25, 0xFF	; 255
 d22:	99 23       	and	r25, r25
 d24:	a9 f0       	breq	.+42     	; 0xd50 <__floatsisf+0x40>
 d26:	f9 2f       	mov	r31, r25
 d28:	96 e9       	ldi	r25, 0x96	; 150
 d2a:	bb 27       	eor	r27, r27
 d2c:	93 95       	inc	r25
 d2e:	f6 95       	lsr	r31
 d30:	87 95       	ror	r24
 d32:	77 95       	ror	r23
 d34:	67 95       	ror	r22
 d36:	b7 95       	ror	r27
 d38:	f1 11       	cpse	r31, r1
 d3a:	f8 cf       	rjmp	.-16     	; 0xd2c <__floatsisf+0x1c>
 d3c:	fa f4       	brpl	.+62     	; 0xd7c <__floatsisf+0x6c>
 d3e:	bb 0f       	add	r27, r27
 d40:	11 f4       	brne	.+4      	; 0xd46 <__floatsisf+0x36>
 d42:	60 ff       	sbrs	r22, 0
 d44:	1b c0       	rjmp	.+54     	; 0xd7c <__floatsisf+0x6c>
 d46:	6f 5f       	subi	r22, 0xFF	; 255
 d48:	7f 4f       	sbci	r23, 0xFF	; 255
 d4a:	8f 4f       	sbci	r24, 0xFF	; 255
 d4c:	9f 4f       	sbci	r25, 0xFF	; 255
 d4e:	16 c0       	rjmp	.+44     	; 0xd7c <__floatsisf+0x6c>
 d50:	88 23       	and	r24, r24
 d52:	11 f0       	breq	.+4      	; 0xd58 <__floatsisf+0x48>
 d54:	96 e9       	ldi	r25, 0x96	; 150
 d56:	11 c0       	rjmp	.+34     	; 0xd7a <__floatsisf+0x6a>
 d58:	77 23       	and	r23, r23
 d5a:	21 f0       	breq	.+8      	; 0xd64 <__floatsisf+0x54>
 d5c:	9e e8       	ldi	r25, 0x8E	; 142
 d5e:	87 2f       	mov	r24, r23
 d60:	76 2f       	mov	r23, r22
 d62:	05 c0       	rjmp	.+10     	; 0xd6e <__floatsisf+0x5e>
 d64:	66 23       	and	r22, r22
 d66:	71 f0       	breq	.+28     	; 0xd84 <__floatsisf+0x74>
 d68:	96 e8       	ldi	r25, 0x86	; 134
 d6a:	86 2f       	mov	r24, r22
 d6c:	70 e0       	ldi	r23, 0x00	; 0
 d6e:	60 e0       	ldi	r22, 0x00	; 0
 d70:	2a f0       	brmi	.+10     	; 0xd7c <__floatsisf+0x6c>
 d72:	9a 95       	dec	r25
 d74:	66 0f       	add	r22, r22
 d76:	77 1f       	adc	r23, r23
 d78:	88 1f       	adc	r24, r24
 d7a:	da f7       	brpl	.-10     	; 0xd72 <__floatsisf+0x62>
 d7c:	88 0f       	add	r24, r24
 d7e:	96 95       	lsr	r25
 d80:	87 95       	ror	r24
 d82:	97 f9       	bld	r25, 7
 d84:	08 95       	ret

00000d86 <__fp_cmp>:
 d86:	99 0f       	add	r25, r25
 d88:	00 08       	sbc	r0, r0
 d8a:	55 0f       	add	r21, r21
 d8c:	aa 0b       	sbc	r26, r26
 d8e:	e0 e8       	ldi	r30, 0x80	; 128
 d90:	fe ef       	ldi	r31, 0xFE	; 254
 d92:	16 16       	cp	r1, r22
 d94:	17 06       	cpc	r1, r23
 d96:	e8 07       	cpc	r30, r24
 d98:	f9 07       	cpc	r31, r25
 d9a:	c0 f0       	brcs	.+48     	; 0xdcc <__fp_cmp+0x46>
 d9c:	12 16       	cp	r1, r18
 d9e:	13 06       	cpc	r1, r19
 da0:	e4 07       	cpc	r30, r20
 da2:	f5 07       	cpc	r31, r21
 da4:	98 f0       	brcs	.+38     	; 0xdcc <__fp_cmp+0x46>
 da6:	62 1b       	sub	r22, r18
 da8:	73 0b       	sbc	r23, r19
 daa:	84 0b       	sbc	r24, r20
 dac:	95 0b       	sbc	r25, r21
 dae:	39 f4       	brne	.+14     	; 0xdbe <__fp_cmp+0x38>
 db0:	0a 26       	eor	r0, r26
 db2:	61 f0       	breq	.+24     	; 0xdcc <__fp_cmp+0x46>
 db4:	23 2b       	or	r18, r19
 db6:	24 2b       	or	r18, r20
 db8:	25 2b       	or	r18, r21
 dba:	21 f4       	brne	.+8      	; 0xdc4 <__fp_cmp+0x3e>
 dbc:	08 95       	ret
 dbe:	0a 26       	eor	r0, r26
 dc0:	09 f4       	brne	.+2      	; 0xdc4 <__fp_cmp+0x3e>
 dc2:	a1 40       	sbci	r26, 0x01	; 1
 dc4:	a6 95       	lsr	r26
 dc6:	8f ef       	ldi	r24, 0xFF	; 255
 dc8:	81 1d       	adc	r24, r1
 dca:	81 1d       	adc	r24, r1
 dcc:	08 95       	ret

00000dce <__fp_inf>:
 dce:	97 f9       	bld	r25, 7
 dd0:	9f 67       	ori	r25, 0x7F	; 127
 dd2:	80 e8       	ldi	r24, 0x80	; 128
 dd4:	70 e0       	ldi	r23, 0x00	; 0
 dd6:	60 e0       	ldi	r22, 0x00	; 0
 dd8:	08 95       	ret

00000dda <__fp_nan>:
 dda:	9f ef       	ldi	r25, 0xFF	; 255
 ddc:	80 ec       	ldi	r24, 0xC0	; 192
 dde:	08 95       	ret

00000de0 <__fp_pscA>:
 de0:	00 24       	eor	r0, r0
 de2:	0a 94       	dec	r0
 de4:	16 16       	cp	r1, r22
 de6:	17 06       	cpc	r1, r23
 de8:	18 06       	cpc	r1, r24
 dea:	09 06       	cpc	r0, r25
 dec:	08 95       	ret

00000dee <__fp_pscB>:
 dee:	00 24       	eor	r0, r0
 df0:	0a 94       	dec	r0
 df2:	12 16       	cp	r1, r18
 df4:	13 06       	cpc	r1, r19
 df6:	14 06       	cpc	r1, r20
 df8:	05 06       	cpc	r0, r21
 dfa:	08 95       	ret

00000dfc <__fp_round>:
 dfc:	09 2e       	mov	r0, r25
 dfe:	03 94       	inc	r0
 e00:	00 0c       	add	r0, r0
 e02:	11 f4       	brne	.+4      	; 0xe08 <__fp_round+0xc>
 e04:	88 23       	and	r24, r24
 e06:	52 f0       	brmi	.+20     	; 0xe1c <__fp_round+0x20>
 e08:	bb 0f       	add	r27, r27
 e0a:	40 f4       	brcc	.+16     	; 0xe1c <__fp_round+0x20>
 e0c:	bf 2b       	or	r27, r31
 e0e:	11 f4       	brne	.+4      	; 0xe14 <__fp_round+0x18>
 e10:	60 ff       	sbrs	r22, 0
 e12:	04 c0       	rjmp	.+8      	; 0xe1c <__fp_round+0x20>
 e14:	6f 5f       	subi	r22, 0xFF	; 255
 e16:	7f 4f       	sbci	r23, 0xFF	; 255
 e18:	8f 4f       	sbci	r24, 0xFF	; 255
 e1a:	9f 4f       	sbci	r25, 0xFF	; 255
 e1c:	08 95       	ret

00000e1e <__fp_split3>:
 e1e:	57 fd       	sbrc	r21, 7
 e20:	90 58       	subi	r25, 0x80	; 128
 e22:	44 0f       	add	r20, r20
 e24:	55 1f       	adc	r21, r21
 e26:	59 f0       	breq	.+22     	; 0xe3e <__fp_splitA+0x10>
 e28:	5f 3f       	cpi	r21, 0xFF	; 255
 e2a:	71 f0       	breq	.+28     	; 0xe48 <__fp_splitA+0x1a>
 e2c:	47 95       	ror	r20

00000e2e <__fp_splitA>:
 e2e:	88 0f       	add	r24, r24
 e30:	97 fb       	bst	r25, 7
 e32:	99 1f       	adc	r25, r25
 e34:	61 f0       	breq	.+24     	; 0xe4e <__fp_splitA+0x20>
 e36:	9f 3f       	cpi	r25, 0xFF	; 255
 e38:	79 f0       	breq	.+30     	; 0xe58 <__fp_splitA+0x2a>
 e3a:	87 95       	ror	r24
 e3c:	08 95       	ret
 e3e:	12 16       	cp	r1, r18
 e40:	13 06       	cpc	r1, r19
 e42:	14 06       	cpc	r1, r20
 e44:	55 1f       	adc	r21, r21
 e46:	f2 cf       	rjmp	.-28     	; 0xe2c <__fp_split3+0xe>
 e48:	46 95       	lsr	r20
 e4a:	f1 df       	rcall	.-30     	; 0xe2e <__fp_splitA>
 e4c:	08 c0       	rjmp	.+16     	; 0xe5e <__fp_splitA+0x30>
 e4e:	16 16       	cp	r1, r22
 e50:	17 06       	cpc	r1, r23
 e52:	18 06       	cpc	r1, r24
 e54:	99 1f       	adc	r25, r25
 e56:	f1 cf       	rjmp	.-30     	; 0xe3a <__fp_splitA+0xc>
 e58:	86 95       	lsr	r24
 e5a:	71 05       	cpc	r23, r1
 e5c:	61 05       	cpc	r22, r1
 e5e:	08 94       	sec
 e60:	08 95       	ret

00000e62 <__fp_zero>:
 e62:	e8 94       	clt

00000e64 <__fp_szero>:
 e64:	bb 27       	eor	r27, r27
 e66:	66 27       	eor	r22, r22
 e68:	77 27       	eor	r23, r23
 e6a:	cb 01       	movw	r24, r22
 e6c:	97 f9       	bld	r25, 7
 e6e:	08 95       	ret

00000e70 <__mulsf3>:
 e70:	0b d0       	rcall	.+22     	; 0xe88 <__mulsf3x>
 e72:	c4 cf       	rjmp	.-120    	; 0xdfc <__fp_round>
 e74:	b5 df       	rcall	.-150    	; 0xde0 <__fp_pscA>
 e76:	28 f0       	brcs	.+10     	; 0xe82 <__mulsf3+0x12>
 e78:	ba df       	rcall	.-140    	; 0xdee <__fp_pscB>
 e7a:	18 f0       	brcs	.+6      	; 0xe82 <__mulsf3+0x12>
 e7c:	95 23       	and	r25, r21
 e7e:	09 f0       	breq	.+2      	; 0xe82 <__mulsf3+0x12>
 e80:	a6 cf       	rjmp	.-180    	; 0xdce <__fp_inf>
 e82:	ab cf       	rjmp	.-170    	; 0xdda <__fp_nan>
 e84:	11 24       	eor	r1, r1
 e86:	ee cf       	rjmp	.-36     	; 0xe64 <__fp_szero>

00000e88 <__mulsf3x>:
 e88:	ca df       	rcall	.-108    	; 0xe1e <__fp_split3>
 e8a:	a0 f3       	brcs	.-24     	; 0xe74 <__mulsf3+0x4>

00000e8c <__mulsf3_pse>:
 e8c:	95 9f       	mul	r25, r21
 e8e:	d1 f3       	breq	.-12     	; 0xe84 <__mulsf3+0x14>
 e90:	95 0f       	add	r25, r21
 e92:	50 e0       	ldi	r21, 0x00	; 0
 e94:	55 1f       	adc	r21, r21
 e96:	62 9f       	mul	r22, r18
 e98:	f0 01       	movw	r30, r0
 e9a:	72 9f       	mul	r23, r18
 e9c:	bb 27       	eor	r27, r27
 e9e:	f0 0d       	add	r31, r0
 ea0:	b1 1d       	adc	r27, r1
 ea2:	63 9f       	mul	r22, r19
 ea4:	aa 27       	eor	r26, r26
 ea6:	f0 0d       	add	r31, r0
 ea8:	b1 1d       	adc	r27, r1
 eaa:	aa 1f       	adc	r26, r26
 eac:	64 9f       	mul	r22, r20
 eae:	66 27       	eor	r22, r22
 eb0:	b0 0d       	add	r27, r0
 eb2:	a1 1d       	adc	r26, r1
 eb4:	66 1f       	adc	r22, r22
 eb6:	82 9f       	mul	r24, r18
 eb8:	22 27       	eor	r18, r18
 eba:	b0 0d       	add	r27, r0
 ebc:	a1 1d       	adc	r26, r1
 ebe:	62 1f       	adc	r22, r18
 ec0:	73 9f       	mul	r23, r19
 ec2:	b0 0d       	add	r27, r0
 ec4:	a1 1d       	adc	r26, r1
 ec6:	62 1f       	adc	r22, r18
 ec8:	83 9f       	mul	r24, r19
 eca:	a0 0d       	add	r26, r0
 ecc:	61 1d       	adc	r22, r1
 ece:	22 1f       	adc	r18, r18
 ed0:	74 9f       	mul	r23, r20
 ed2:	33 27       	eor	r19, r19
 ed4:	a0 0d       	add	r26, r0
 ed6:	61 1d       	adc	r22, r1
 ed8:	23 1f       	adc	r18, r19
 eda:	84 9f       	mul	r24, r20
 edc:	60 0d       	add	r22, r0
 ede:	21 1d       	adc	r18, r1
 ee0:	82 2f       	mov	r24, r18
 ee2:	76 2f       	mov	r23, r22
 ee4:	6a 2f       	mov	r22, r26
 ee6:	11 24       	eor	r1, r1
 ee8:	9f 57       	subi	r25, 0x7F	; 127
 eea:	50 40       	sbci	r21, 0x00	; 0
 eec:	8a f0       	brmi	.+34     	; 0xf10 <__mulsf3_pse+0x84>
 eee:	e1 f0       	breq	.+56     	; 0xf28 <__mulsf3_pse+0x9c>
 ef0:	88 23       	and	r24, r24
 ef2:	4a f0       	brmi	.+18     	; 0xf06 <__mulsf3_pse+0x7a>
 ef4:	ee 0f       	add	r30, r30
 ef6:	ff 1f       	adc	r31, r31
 ef8:	bb 1f       	adc	r27, r27
 efa:	66 1f       	adc	r22, r22
 efc:	77 1f       	adc	r23, r23
 efe:	88 1f       	adc	r24, r24
 f00:	91 50       	subi	r25, 0x01	; 1
 f02:	50 40       	sbci	r21, 0x00	; 0
 f04:	a9 f7       	brne	.-22     	; 0xef0 <__mulsf3_pse+0x64>
 f06:	9e 3f       	cpi	r25, 0xFE	; 254
 f08:	51 05       	cpc	r21, r1
 f0a:	70 f0       	brcs	.+28     	; 0xf28 <__mulsf3_pse+0x9c>
 f0c:	60 cf       	rjmp	.-320    	; 0xdce <__fp_inf>
 f0e:	aa cf       	rjmp	.-172    	; 0xe64 <__fp_szero>
 f10:	5f 3f       	cpi	r21, 0xFF	; 255
 f12:	ec f3       	brlt	.-6      	; 0xf0e <__mulsf3_pse+0x82>
 f14:	98 3e       	cpi	r25, 0xE8	; 232
 f16:	dc f3       	brlt	.-10     	; 0xf0e <__mulsf3_pse+0x82>
 f18:	86 95       	lsr	r24
 f1a:	77 95       	ror	r23
 f1c:	67 95       	ror	r22
 f1e:	b7 95       	ror	r27
 f20:	f7 95       	ror	r31
 f22:	e7 95       	ror	r30
 f24:	9f 5f       	subi	r25, 0xFF	; 255
 f26:	c1 f7       	brne	.-16     	; 0xf18 <__mulsf3_pse+0x8c>
 f28:	fe 2b       	or	r31, r30
 f2a:	88 0f       	add	r24, r24
 f2c:	91 1d       	adc	r25, r1
 f2e:	96 95       	lsr	r25
 f30:	87 95       	ror	r24
 f32:	97 f9       	bld	r25, 7
 f34:	08 95       	ret

00000f36 <__udivmodhi4>:
 f36:	aa 1b       	sub	r26, r26
 f38:	bb 1b       	sub	r27, r27
 f3a:	51 e1       	ldi	r21, 0x11	; 17
 f3c:	07 c0       	rjmp	.+14     	; 0xf4c <__udivmodhi4_ep>

00000f3e <__udivmodhi4_loop>:
 f3e:	aa 1f       	adc	r26, r26
 f40:	bb 1f       	adc	r27, r27
 f42:	a6 17       	cp	r26, r22
 f44:	b7 07       	cpc	r27, r23
 f46:	10 f0       	brcs	.+4      	; 0xf4c <__udivmodhi4_ep>
 f48:	a6 1b       	sub	r26, r22
 f4a:	b7 0b       	sbc	r27, r23

00000f4c <__udivmodhi4_ep>:
 f4c:	88 1f       	adc	r24, r24
 f4e:	99 1f       	adc	r25, r25
 f50:	5a 95       	dec	r21
 f52:	a9 f7       	brne	.-22     	; 0xf3e <__udivmodhi4_loop>
 f54:	80 95       	com	r24
 f56:	90 95       	com	r25
 f58:	bc 01       	movw	r22, r24
 f5a:	cd 01       	movw	r24, r26
 f5c:	08 95       	ret

00000f5e <__udivmodsi4>:
 f5e:	a1 e2       	ldi	r26, 0x21	; 33
 f60:	1a 2e       	mov	r1, r26
 f62:	aa 1b       	sub	r26, r26
 f64:	bb 1b       	sub	r27, r27
 f66:	fd 01       	movw	r30, r26
 f68:	0d c0       	rjmp	.+26     	; 0xf84 <__udivmodsi4_ep>

00000f6a <__udivmodsi4_loop>:
 f6a:	aa 1f       	adc	r26, r26
 f6c:	bb 1f       	adc	r27, r27
 f6e:	ee 1f       	adc	r30, r30
 f70:	ff 1f       	adc	r31, r31
 f72:	a2 17       	cp	r26, r18
 f74:	b3 07       	cpc	r27, r19
 f76:	e4 07       	cpc	r30, r20
 f78:	f5 07       	cpc	r31, r21
 f7a:	20 f0       	brcs	.+8      	; 0xf84 <__udivmodsi4_ep>
 f7c:	a2 1b       	sub	r26, r18
 f7e:	b3 0b       	sbc	r27, r19
 f80:	e4 0b       	sbc	r30, r20
 f82:	f5 0b       	sbc	r31, r21

00000f84 <__udivmodsi4_ep>:
 f84:	66 1f       	adc	r22, r22
 f86:	77 1f       	adc	r23, r23
 f88:	88 1f       	adc	r24, r24
 f8a:	99 1f       	adc	r25, r25
 f8c:	1a 94       	dec	r1
 f8e:	69 f7       	brne	.-38     	; 0xf6a <__udivmodsi4_loop>
 f90:	60 95       	com	r22
 f92:	70 95       	com	r23
 f94:	80 95       	com	r24
 f96:	90 95       	com	r25
 f98:	9b 01       	movw	r18, r22
 f9a:	ac 01       	movw	r20, r24
 f9c:	bd 01       	movw	r22, r26
 f9e:	cf 01       	movw	r24, r30
 fa0:	08 95       	ret

00000fa2 <_exit>:
 fa2:	f8 94       	cli

00000fa4 <__stop_program>:
 fa4:	ff cf       	rjmp	.-2      	; 0xfa4 <__stop_program>
