:100000000C9434000C9451000C9451000C942E0666
:100010000C9451000C9451000C9451000C9451001C
:100020000C9451000C9451000C9451000C9451000C
:100030000C9451000C9451000C9451000C945100FC
:100040000C940F070C9451000C9451000C94510027
:100050000C9451000C9451000C9451000C945100DC
:100060000C9451000C94510011241FBECFEFD8E026
:10007000DEBFCDBF11E0A0E0B1E0E6E3FBE102C0EE
:1000800005900D92AC38B107D9F711E0ACE8B1E0BA
:1000900001C01D92A23EB107E1F70E9449090C94EC
:1000A000990D0C940000429A0895089584B18660D9
:1000B00084B988E893E19093870080938600E0E814
:1000C000F0E08081826A8083E1E8F0E080818A61EB
:1000D0008083239A539AE0EBF0E08081836A8083E7
:1000E000E1EBF0E0808185608083089520E030E4DA
:1000F0004CE955E40E94000D0E94220C609390018F
:10010000709391018093920190939301089590933D
:10011000890080938800089590938B0080938A00D3
:10012000089587708093DC01089547B121E030E0A5
:10013000C9010090DC0102C0880F991F0A94E2F700
:100140008095842387B9089547B121E030E0C90143
:100150000090DC0102C0880F991F0A94E2F7842BFB
:1001600087B908950E94950026B14091DC0181E095
:1001700090E0042E02C0880F991F0A94E2F730E045
:100180008223932302C0959587954A95E2F7809341
:10019000B80108951F93182F0E94A400112379F429
:1001A00048B121E030E0C9010090DC0102C0880FB5
:1001B000991F0A94E2F78095842388B90DC048B14D
:1001C00021E030E0C9010090DC0102C0880F991FD6
:1001D0000A94E2F7842B88B91F91089580E00E9469
:1001E000CA008FE797E00197F1F700C000000E9476
:1001F00095008FEE90E00197F1F700C000000E949B
:10020000B2008FE896E00197F1F700C00000089572
:100210001F93182F80E00E94CA0085E08A95F1F7AD
:100220000000112311F00E9495008FEE90E00197DD
:10023000F1F700C000000E9495001F910895EF9211
:10024000FF920F931F93CF93DF93C0E0D0E001E0C4
:1002500010E0E82EFF24C8010C2E02C0880F991F61
:100260000A94E2F78E219F210C2E02C09595879566
:100270000A94E2F70E9408012196C830D10559F787
:10028000DF91CF911F910F91FF90EF90089580E043
:100290000E94CA0085E08A95F1F700000E9495004F
:1002A0009AE49A95F1F700C00E94B20090EF9A95F7
:1002B000F1F708950F931F9318E000E00E944701A3
:1002C0008795882787950695082B1150B9F7802FB9
:1002D0001F910F910895893020F08D3018F08CE037
:1002E00001C089E090E00997880F991F8295929547
:1002F000907F9827807F98278F618093D3010895FE
:100300000F931F93CF93DF930E94EE0083E30E942D
:100310001F01C6EAD1E08E01085F1F4F0E945A01FB
:100320008993C017D107D1F7DF91CF911F910F911A
:100330000895CF92DF92EF92FF921F930E94EE00FA
:100340008CEC0E941F0184E40E941F010E9447015F
:100350008823E1F30E94EE008CEC0E941F018EEBDB
:100360000E941F010E945A01809394010E945A0129
:100370008093A4010E94EE00109194018091A40149
:1003800090E08770907082959295907F9827807FFB
:100390009827612F62956F70862B80938D011F7057
:1003A0001093DD01682F70E080E090E00E944E0C19
:1003B0006B017C01612F70E080E090E00E944E0CA8
:1003C00020E030E040E85DE30E94000D9B01AC01BD
:1003D000C701B6010E944D0B262F372F482F592FEA
:1003E00020939701309398014093990150939A017B
:1003F0001F91FF90EF90DF90CF900895CF92DF9202
:10040000EF92FF920F931F93CF93DF93082F80E01B
:100410000E9491000E94EE0085E50E941F01C02FFE
:10042000D0E0CC0FDD1FCC0FDD1FCC0FDD1F0F2E5A
:10043000FCE6EF2EF1E0FF2EF02DEC0EFD1ECC5869
:10044000DE4F8701F80181918F010E941F010C1777
:100450001D07C1F784E40E941F010E944701882301
:10046000E1F30E94EE0085E50E941F0100E0F70124
:1004700081917F010E941F010F5F0830C1F78EEB51
:100480000E941F010E945A01809394010E945A0108
:100490008093A4010E94EE00009194018091A40138
:1004A00090E08770907082959295907F9827807FDA
:1004B0009827602F62956F70862B80938D010F7047
:1004C0000093DD01682F70E080E090E00E944E0C08
:1004D0006B017C01602F70E080E090E00E944E0C88
:1004E00020E030E040E85DE30E94000D9B01AC019C
:1004F000C701B6010E944D0B262F372F482F592FC9
:1005000020939701309398014093990150939A0159
:10051000DF91CF911F910F91FF90EF90DF90CF90DF
:100520000895EAE7F0E08081846880830895EF927F
:10053000FF920F931F93CF93DF931092A00110921D
:10054000A1011092A2011092A301ECE7F0E09081CA
:10055000907F908390818F70982B908310929B0155
:10056000EAE7F0E00F2EF8E7EF2EFF24F02D09E781
:1005700010E0808180648083808184FFFDCFD7017B
:100580002C918091A0019091A101A091A201B09124
:10059000A301820F911DA11DB11D8093A001909315
:1005A000A101A093A201B093A301E8012881722FB9
:1005B00060E09B01442737FD4095542F820F931F25
:1005C000A41FB51F8093A0019093A101A093A20145
:1005D000B093A3018AE18A95F1F700C080919B0155
:1005E0008F5F80939B01843620F26091A00170910F
:1005F000A1018091A2019091A30124E630E040E0A6
:1006000050E00E94770D2093A0013093A101409308
:10061000A2015093A301822F932FDF91CF911F91BD
:100620000F91FF90EF9008956091A0017091A1014A
:100630008091A2019091A3010E944E0C20E030E035
:1006400040E85AE30E94000D2CE53FE842EC5DE3F0
:100650000E944D0B2CEB34E743E15CE30E94B50BA9
:10066000262F372F482F592F20939C0130939D011F
:1006700040939E0150939F0108958AB18E608AB97C
:1006800008958AB18F708AB908958AB1806F8AB946
:1006900008958AB18E6F8AB90895882311F45B9802
:1006A00008955B9A0895882311F45A9808955A9AE8
:1006B0000895882311F459980895599A08950E942D
:1006C00041030E943D0381E00E94530380E00E94A9
:1006D000590381E00E944D0389B1807F80938F018F
:1006E00080E00E944D0381E00E944D0389B1829514
:1006F0008F7090918F01892B80938F0180E00E94F1
:100700004D0308950E945F0380918F01882334F484
:100710000E945F0380918F018823D4F30E944903D4
:1007200008951F93182F0E94490380E00E945303ED
:1007300081E00E944D038BB18F708BB98BB1129504
:10074000107F182B1BB98FE39FE10197F1F700C0D1
:10075000000080E00E944D031F9108951F93182F01
:100760000E94820380E00E945903812F82958F703E
:100770000E949103812F0E9491031F9108951F935E
:10078000182F0E94820381E00E945903812F8295D5
:100790008F700E949103812F0E9491031F910895F1
:1007A0000E94BF03089583E00E94AE038FEF9DEE89
:1007B000A2E081509040A040E1F700C0000083E03B
:1007C0000E94AE038FEF9DEEA2E081509040A040CA
:1007D000E1F700C0000083E00E94AE038FEF9DEEC2
:1007E000A2E081509040A040E1F700C0000082E00C
:1007F0000E94AE0388E20E94AE038CE00E94AE032A
:1008000086E00E94AE0381E00E94AE0380E80E9471
:10081000AE0308950F931F93062F813031F480E8C3
:100820000E94AE03002389F417C0823021F480ECCB
:100830000E94AE03F7CF833021F484E90E94AE0317
:10084000F1CF84ED0E94AE03EDCF10E084E10E9471
:10085000AE031F5F1017D0F31F910F91089581E031
:100860000E94AE030895CF93DF93EC018881882323
:1008700031F021960E94D00389918823D9F7DF9126
:10088000CF9108959F92AF92BF92CF92DF92EF9255
:10089000FF920F931F936A3071058105910528F42B
:1008A000862F805D0E94D003C4C064367105810527
:1008B000910580F42AE030E040E050E00E94770D9E
:1008C000162F822F805D0E94D003812F805D0E94B1
:1008D000D003AFC0683E23E0720720E0820720E02B
:1008E000920718F50F2EFAE0EF2EF0E0FF2EF0E061
:1008F0000F2FF0E01F2FF02DA80197010E94770D18
:10090000A62ECA01B901A80197010E94770D162FE2
:10091000822F805D0E94D003812F805D0E94D003D2
:100920008A2D805D0E94D00384C0603127E2720767
:1009300020E0820720E0920788F524E630E040E0DE
:1009400050E00E94770D5B016C010F2EFAE0EF2E54
:10095000F0E0FF2EF0E00F2FF0E01F2FF02DCA0186
:10096000B901A80197010E94770D962E822F805D14
:100970000E94D003892D805D0E94D003C601B5017D
:10098000A80197010E94770D162F822F805D0E948B
:10099000D003812F805D0E94D0034BC0603A26E8CF
:1009A000720721E0820720E0920708F042C028EE9B
:1009B00033E040E050E00E94770D5B016C010F2EA8
:1009C000FAE0EF2EF0E0FF2EF0E00F2FF0E01F2F07
:1009D000F02DCA01B901A80197010E94770D962E4A
:1009E000822F805D0E94D003892D805D0E94D003FC
:1009F000C601B50124E630E040E050E00E94770DEA
:100A0000822F805D0E94D003C601B501A801970125
:100A10000E94770DA62ECA01B901A80197010E9474
:100A2000770D862F805D0E94D0038A2D805D0E9405
:100A3000D0031F910F91FF90EF90DF90CF90BF9068
:100A4000AF909F900895AF92BF92CF92DF92EF92B6
:100A5000FF920F931F935B016C0120E030E0A9012E
:100A60000E94B10B88233CF48DE20E94D003D7FA98
:100A7000D094D7F8D094C601B5010E94220CE62E7E
:100A8000F72E082F192F0E944E0C9B01AC01C601B6
:100A9000B5010E944C0B20E030E04AE754E40E948C
:100AA000000D0E94220C5B016E2D7F2D802F912F57
:100AB0000E9442048EE20E94D003C50164E670E009
:100AC0000E94630D7C01862F805D0E94D0030AE0A6
:100AD00010E0C701B8010E94630D862F805D0E945F
:100AE000D003C501B8010E94630D805D0E94D00350
:100AF0001F910F91FF90EF90DF90CF90BF90AF903C
:100B000008958DE00E94D0030895EF92FF920F9315
:100B10001F93DF93CF9300D000D0CDB7DEB7292F3E
:100B200022952F702C839C0120703F703B839C0189
:100B3000207F3070359527953595279535952795E4
:100B4000359527952A838F7089838E010B5F1F4F00
:100B50007E010894E11CF11CF80182918F018A301A
:100B600020F0895C0E94D00303C0805D0E94D00306
:100B70000E151F0589F70F900F900F900F90CF91D2
:100B8000DF911F910F91FF90EF900895EF92FF92E8
:100B90000F931F93CF93DF93EC01992344F0BE0191
:100BA000882777FD8095982F0E94420414C08DE21B
:100BB0000E94D003CE01A0E0B0E020E030E041E0B0
:100BC00050E079018A01E81AF90A0A0B1B0BC801E7
:100BD000B7010E944204DF91CF911F910F91FF90C6
:100BE000EF900895209A982F917080FD02C0289868
:100BF0000895913009F4289A089585B1886385B9DC
:100C000084B1877C84B9E8E6F0E0808181608083EC
:100C1000EBE6F0E08081886080837894089523B1CA
:100C200041E050E0082E02C0440F551F0A94E2F73D
:100C300030E024233523A90102C0559547958A95B4
:100C4000E2F7CA01089583B190E08870907095959D
:100C50008795959587959595879508951F920F92FD
:100C60000FB60F9211242F933F934F935F936F937F
:100C70007F938F939F93AF93BF93EF93FF930E94C4
:100C80002306882349F40E94F20580918C018F5F2E
:100C9000817080938C0103C081E00E94F205FF9176
:100CA000EF91BF91AF919F918F917F916F915F91E4
:100CB0004F913F912F910F900FBE0F901F9018955D
:100CC0003A9A0E94530014BC86E086BDEEE6F0E03E
:100CD00080818160808315BC089585B5836085BD62
:100CE0000895EF92FF920F931F936091DE01709130
:100CF000DF018091E0019091E1012091B4013091F8
:100D0000B5014091B6015091B7010E944C0BE62EFF
:100D1000F72E082F192F862F9F2DA02FB12F8093EC
:100D2000AE019093AF01A093B001B093B1016E2DCD
:100D30007F2D802F912F20E030E0A9010E94B10B80
:100D400088235CF06E2D7F2D802F912F20E030E0E6
:100D5000A9010E94B10B882329F4109296011092E8
:100D6000950152C06E2D7F2D802F912F20E030E015
:100D700040E85FE30E94B10B88233CF488EE93E0E7
:100D800090939601809395013FC06E2D7F2D802F0B
:100D9000912F20E030E040E050E40E94B10B882326
:100DA0003CF480ED97E090939601809395012CC0E0
:100DB0006E2D7F2D802F912F20E030E040E450E415
:100DC0000E94B10B88233CF488EB9BE09093960142
:100DD0008093950119C06E2D7F2D802F912F20E0DB
:100DE00030E040E850E40E94B10B88233CF480EAF4
:100DF0009FE0909396018093950106C088E893E167
:100E00009093960180939501809195019091960120
:100E10001F910F91FF90EF900895429808951F92AF
:100E20000F920FB60F9211242F933F934F935F931E
:100E30006F937F938F939F93AF93BF93EF93FF93A2
:100E40008091B2019091B30101969093B301809388
:100E5000B20123E18838920721F41092B301109275
:100E6000B20120919501309196018091B20190914B
:100E7000B3018217930768F40E940D072091950132
:100E8000309196018091B2019091B301821793073E
:100E900010F00E94530086E086BDFF91EF91BF9154
:100EA000AF919F918F917F916F915F914F913F9102
:100EB0002F910F900FBE0F901F9018951092C500A4
:100EC00088E08093C4001092C000E2ECF0E08081E2
:100ED00086608083E1ECF0E08081886980830895FA
:100EE0008091C6000895E0ECF0E0908195FFFDCF81
:100EF0008093C6000895CF93DF93EC018881882307
:100F000031F021960E94730789918823D9F7DF91E8
:100F1000CF9108959F92AF92BF92CF92DF92EF92BE
:100F2000FF920F931F936A3071058105910528F494
:100F3000862F805D0E947307C4C0643671058105E9
:100F4000910580F42AE030E040E050E00E94770D07
:100F5000162F822F805D0E947307812F805D0E9473
:100F60007307AFC0683E23E0720720E0820720E0ED
:100F7000920718F50F2EFAE0EF2EF0E0FF2EF0E0CA
:100F80000F2FF0E01F2FF02DA80197010E94770D81
:100F9000A62ECA01B901A80197010E94770D162F4C
:100FA000822F805D0E947307812F805D0E947307EE
:100FB0008A2D805D0E94730784C0603127E272072A
:100FC00020E0820720E0920788F524E630E040E048
:100FD00050E00E94770D5B016C010F2EFAE0EF2EBE
:100FE000F0E0FF2EF0E00F2FF0E01F2FF02DCA01F0
:100FF000B901A80197010E94770D962E822F805D7E
:101000000E947307892D805D0E947307C601B50198
:10101000A80197010E94770D162F822F805D0E94F4
:101020007307812F805D0E9473074BC0603A26E8EA
:10103000720721E0820720E0920708F042C028EE04
:1010400033E040E050E00E94770D5B016C010F2E11
:10105000FAE0EF2EF0E0FF2EF0E00F2FF0E01F2F70
:10106000F02DCA01B901A80197010E94770D962EB3
:10107000822F805D0E947307892D805D0E94730717
:10108000C601B50124E630E040E050E00E94770D53
:10109000822F805D0E947307C601B501A8019701E8
:1010A0000E94770DA62ECA01B901A80197010E94DE
:1010B000770D862F805D0E9473078A2D805D0E94C8
:1010C00073071F910F91FF90EF90DF90CF90BF902B
:1010D000AF909F900895AF92BF92CF92DF92EF9220
:1010E000FF920F931F935B016C0120E030E0A90198
:1010F0000E94B10B88233CF48DE20E947307D7FA5B
:10110000D094D7F8D094C601B5010E94220CE62EE7
:10111000F72E082F192F0E944E0C9B01AC01C6011F
:10112000B5010E944C0B20E030E04AE754E40E94F5
:10113000000D0E94220C5B016E2D7F2D802F912FC0
:101140000E948A078EE20E947307C50164E670E080
:101150000E94630D7C01862F805D0E9473070AE068
:1011600010E0C701B8010E94630D862F805D0E94C8
:101170007307C501B8010E94630D805D0E9473076B
:101180001F910F91FF90EF90DF90CF90BF90AF90A5
:1011900008958DE00E94730708950F931F93082F01
:1011A000882339F010E088E00E9473071F5F101752
:1011B000D0F31F910F910895EF92FF920F931F9319
:1011C000DF93CF9300D000D0CDB7DEB7292F229583
:1011D0002F702C839C0120703F703B839C01207FEB
:1011E0003070359527953595279535952795359503
:1011F00027952A838F7089838E010B5F1F4F7E0195
:101200000894E11CF11CF80182918F018A3020F0D2
:10121000895C0E94730703C0805D0E9473070E15EE
:101220001F0589F70F900F900F900F90CF91DF91CE
:101230001F910F91FF90EF900895EF92FF920F93FF
:101240001F93CF93DF93EC01992344F0BE018827CD
:1012500077FD8095982F0E948A0714C08DE20E9426
:101260007307CE01A0E0B0E020E030E041E050E0C4
:1012700079018A01E81AF90A0A0B1B0BC801B701A8
:101280000E948A07DF91CF911F910F91FF90EF90FD
:1012900008952F923F924F925F926F927F928F921A
:1012A0009F92AF92BF92CF92DF92EF92FF920F93F5
:1012B0001F93CF93DF93E1E6F0E080E88083108214
:1012C000F8940E9491020E94D3030E94FD050E949F
:1012D00060060E945E0781E065E00E940A0480E0EB
:1012E00091E00E94330483E060E00E940A048CE0F5
:1012F00091E00E94330484E060E00E940A048FE1E0
:1013000091E00E94330410928E011092A50180E0BA
:101310000E94FE018091A5018F5F8093A50184301A
:10132000B8F380918E018F5F80938E01823068F3D5
:101330001092A50180E0C9EBD1E00E94FE01E0908F
:101340009701F09098010091990110919A01C801BC
:10135000B70120E030E04EEF52E40E94B10B882349
:101360006CF4E091A501F0E0EE0FFF1FEE0FFF1F00
:10137000EC0FFD1FE082F182028313838091A501AF
:101380008F5F8093A5018430C0F26091B9017091A4
:10139000BA018091BB019091BC012091BD013091B7
:1013A000BE014091BF015091C0010E944D0B2091A0
:1013B000C1013091C2014091C3015091C4010E940A
:1013C0004D0B2091C5013091C6014091C70150914C
:1013D000C8010E944D0B20E030E040E85EE30E942F
:1013E000000D262F372F482F592F2093B40130930B
:1013F000B5014093B6015093B7010E941D0C882798
:1014000077FD8095982F0E94500C6093DE017093B9
:10141000DF018093E0019093E10178940E946D06D2
:10142000C9EBD1E088249924689482F88C0E9D1E23
:1014300066247724689463F86C0E7D1E0F2EFCE002
:101440004F2E5524F02D4C0E5D1E0F2EF2E32F2E45
:10145000F1E03F2EF02D0F2EFDE3AF2EF1E0BF2E79
:10146000F02D0F2EF7E5CF2EF1E0DF2EF02D80913D
:101470008C01882309F09BC081E00E9497020E94A2
:1014800014031092A50180E00E94FE01E0909701F4
:10149000F09098010091990110919A01C801B7014B
:1014A00020E030E04EEF52E40E94B10B88236CF450
:1014B000E091A501F0E0EE0FFF1FEE0FFF1FEC0F14
:1014C000FD1FE082F182028313838091A5018F5F6B
:1014D0008093A5018430C0F2688179818A819B81E3
:1014E000D4012D913D914D915C910E944D0BF301E2
:1014F00020813181428153810E944D0BD2012D9177
:101500003D914D915C910E944D0B20E030E040E810
:101510005EE30E94000D6093B4017093B501809367
:10152000B6019093B7010E9471060E942F0481E0DA
:1015300060E00E940A04C1010E9433046091DE0150
:101540007091DF018091E0019091E1010E942305FB
:10155000C5010E94330482E060E00E940A0481E435
:1015600091E00E9433046091B4017091B5018091C3
:10157000B6019091B7010E942305C5010E94330472
:1015800083E060E00E940A0488E491E00E94330452
:1015900060919C0170919D0180919E0190919F01AD
:1015A0000E94230583E591E00E94330460CF0E94EE
:1015B0002F0481E060E00E940A04C6010E94330407
:1015C00082E065E00E940A046091DE017091DF0113
:1015D0008091E0019091E1010E9423051092A50104
:1015E00084E00E940F068093C9018091A5018F5F5E
:1015F0008093A501883CA0F38091C901882309F05C
:1016000048C06091DE017091DF018091E00190910E
:10161000E1012DEC3CEC4CEC5DE30E944C0B609343
:10162000DE017093DF018093E0019093E10110925D
:10163000A50185E00E940F068093C9018091A50154
:101640008F5F8093A501883CA0F38091C901882316
:10165000B1F46091DE017091DF018091E001909121
:10166000E1012DEC3CEC4CEC5DE30E944D0B6093F2
:10167000DE017093DF018093E0019093E1018FEF31
:1016800093ECA9E081509040A040E1F700C0000039
:10169000EECE1092A501CDCF5058BB27AA270ED071
:1016A00075C166D130F06BD120F031F49F3F11F459
:1016B0001EF45BC10EF4E095E7FB51C1E92F77D131
:1016C00080F3BA17620773078407950718F071F45F
:1016D0009EF58FC10EF4E0950B2EBA2FA02D0B01B5
:1016E000B90190010C01CA01A0011124FF27591B67
:1016F00099F0593F50F4503E68F11A16F040A22F6D
:10170000232F342F4427585FF3CF469537952795DD
:10171000A795F0405395C9F77EF41F16BA0B620BDC
:10172000730B840BBAF09150A1F0FF0FBB1F661F23
:10173000771F881FC2F70EC0BA0F621F731F841F66
:1017400048F4879577956795B795F7959E3F08F08C
:10175000B3CF9395880F08F09927EE0F979587954B
:101760000895D9D008F481E008950CD00FC107D1B5
:1017700040F0FED030F021F45F3F19F0F0C051117D
:1017800039C1F3C014D198F39923C9F35523B1F3A8
:10179000951B550BBB27AA2762177307840738F0E0
:1017A0009F5F5F4F220F331F441FAA1FA9F333D03F
:1017B0000E2E3AF0E0E830D091505040E695001CF3
:1017C000CAF729D0FE2F27D0660F771F881FBB1FAF
:1017D000261737074807AB07B0E809F0BB0B802D89
:1017E000BF01FF2793585F4F2AF09E3F510568F0D5
:1017F000B6C000C15F3FECF3983EDCF38695779569
:101800006795B795F7959F5FC9F7880F911D9695D6
:10181000879597F90895E1E0660F771F881FBB1F32
:10182000621773078407BA0720F0621B730B840BDF
:10183000BA0BEE1F88F7E095089504D06894B111B3
:10184000D9C00895BCD088F09F5790F0B92F992740
:10185000B751A0F0D1F0660F771F881F991F1AF0BB
:10186000BA95C9F712C0B13081F0C3D0B1E0089584
:10187000C0C0672F782F8827B85F39F0B93FCCF305
:10188000869577956795B395D9F73EF490958095B1
:10189000709561957F4F8F4F9F4F0895E89409C0D1
:1018A00097FB3EF490958095709561957F4F8F4F93
:1018B0009F4F9923A9F0F92F96E9BB279395F695A9
:1018C000879577956795B795F111F8CFFAF4BB0F27
:1018D00011F460FF1BC06F5F7F4F8F4F9F4F16C08B
:1018E000882311F096E911C0772321F09EE8872F15
:1018F000762F05C0662371F096E8862F70E060E0D1
:101900002AF09A95660F771F881FDAF7880F969549
:10191000879597F90895990F0008550FAA0BE0E8ED
:10192000FEEF16161706E807F907C0F012161306A1
:10193000E407F50798F0621B730B840B950B39F4E1
:101940000A2661F0232B242B252B21F408950A2647
:1019500009F4A140A6958FEF811D811D089597F987
:101960009F6780E870E060E008959FEF80EC089545
:1019700000240A941616170618060906089500246E
:101980000A9412161306140605060895092E0394E8
:10199000000C11F4882352F0BB0F40F4BF2B11F45C
:1019A00060FF04C06F5F7F4F8F4F9F4F089557FDBB
:1019B0009058440F551F59F05F3F71F04795880FBD
:1019C00097FB991F61F09F3F79F087950895121654
:1019D00013061406551FF2CF4695F1DF08C0161600
:1019E00017061806991FF1CF8695710561050894B1
:1019F0000895E894BB2766277727CB0197F90895C8
:101A00000BD0C4CFB5DF28F0BADF18F0952309F06A
:101A1000A6CFABCF1124EECFCADFA0F3959FD1F3B1
:101A2000950F50E0551F629FF001729FBB27F00D8C
:101A3000B11D639FAA27F00DB11DAA1F649F6627E1
:101A4000B00DA11D661F829F2227B00DA11D621F30
:101A5000739FB00DA11D621F839FA00D611D221FEA
:101A6000749F3327A00D611D231F849F600D211DCE
:101A7000822F762F6A2F11249F5750408AF0E1F071
:101A800088234AF0EE0FFF1FBB1F661F771F881FBA
:101A900091505040A9F79E3F510570F060CFAACFFA
:101AA0005F3FECF3983EDCF3869577956795B795A5
:101AB000F795E7959F5FC1F7FE2B880F911D9695CF
:101AC000879597F90895AA1BBB1B51E107C0AA1F70
:101AD000BB1FA617B70710F0A61BB70B881F991FCF
:101AE0005A95A9F780959095BC01CD010895A1E282
:101AF0001A2EAA1BBB1BFD010DC0AA1FBB1FEE1F88
:101B0000FF1FA217B307E407F50720F0A21BB30BD2
:101B1000E40BF50B661F771F881F991F1A9469F74E
:101B200060957095809590959B01AC01BD01CF01AA
:061B30000895F894FFCFB8
:101B36004275726E2D696E20426F7800546865207A
:101B4600564E5054746563686E6F6C6779200073E7
:101B5600696D756C6174696F6E2070726F64756300
:101B660074004465735F54656D703A2000206F43BE
:101B76000054656D703A2000507265737375726516
:101B86003A20006B50610053657420646573746974
:101B96006E6174696F6E2074656D70002830C5B80B
:101BA6000000008E2831C5B8000000B92832C5B83B
:0C1BB600000000E02833C5B8000000D794
:00000001FF
